{
	"contracts/fundMe.sol": {
		"FundMe": {
			"abi": [
				{
					"inputs": [],
					"stateMutability": "nonpayable",
					"type": "constructor"
				},
				{
					"stateMutability": "payable",
					"type": "fallback"
				},
				{
					"inputs": [],
					"name": "MIN_USD",
					"outputs": [
						{
							"internalType": "uint256",
							"name": "",
							"type": "uint256"
						}
					],
					"stateMutability": "view",
					"type": "function"
				},
				{
					"inputs": [
						{
							"internalType": "address",
							"name": "",
							"type": "address"
						}
					],
					"name": "addressToAmountFunded",
					"outputs": [
						{
							"internalType": "uint256",
							"name": "",
							"type": "uint256"
						}
					],
					"stateMutability": "view",
					"type": "function"
				},
				{
					"inputs": [],
					"name": "fund",
					"outputs": [],
					"stateMutability": "payable",
					"type": "function"
				},
				{
					"inputs": [
						{
							"internalType": "uint256",
							"name": "",
							"type": "uint256"
						}
					],
					"name": "funders",
					"outputs": [
						{
							"internalType": "address",
							"name": "",
							"type": "address"
						}
					],
					"stateMutability": "view",
					"type": "function"
				},
				{
					"inputs": [],
					"name": "i_owner",
					"outputs": [
						{
							"internalType": "address",
							"name": "",
							"type": "address"
						}
					],
					"stateMutability": "view",
					"type": "function"
				},
				{
					"inputs": [],
					"name": "withdraw",
					"outputs": [],
					"stateMutability": "nonpayable",
					"type": "function"
				},
				{
					"stateMutability": "payable",
					"type": "receive"
				}
			],
			"devdoc": {
				"kind": "dev",
				"methods": {},
				"version": 1
			},
			"evm": {
				"assembly": "    /* \"contracts/fundMe.sol\":95:1447  contract FundMe{... */\n  mstore(0x40, 0xa0)\n    /* \"contracts/fundMe.sol\":338:388  constructor() {... */\n  callvalue\n  dup1\n  iszero\n  tag_1\n  jumpi\n  0x00\n  dup1\n  revert\ntag_1:\n  pop\n    /* \"contracts/fundMe.sol\":371:381  msg.sender */\n  caller\n    /* \"contracts/fundMe.sol\":361:381  i_owner = msg.sender */\n  0xffffffffffffffffffffffffffffffffffffffff\n  and\n  0x80\n  dup2\n  0xffffffffffffffffffffffffffffffffffffffff\n  and\n  dup2\n  mstore\n  pop\n  pop\n    /* \"contracts/fundMe.sol\":95:1447  contract FundMe{... */\n  mload(0x80)\n  codecopy(0x00, dataOffset(sub_0), dataSize(sub_0))\n  0x00\n  assignImmutable(\"0x59d26ca75eb04b47ab1bca5d789d02e4d0cf9ff8cb49c9041caeeeab4eccafbf\")\n  return(0x00, dataSize(sub_0))\nstop\n\nsub_0: assembly {\n        /* \"contracts/fundMe.sol\":95:1447  contract FundMe{... */\n      mstore(0x40, 0x80)\n      jumpi(tag_1, lt(calldatasize, 0x04))\n      shr(0xe0, calldataload(0x00))\n      dup1\n      0x213dbea2\n      eq\n      tag_3\n      jumpi\n      dup1\n      0x3ccfd60b\n      eq\n      tag_4\n      jumpi\n      dup1\n      0x3e47d6f3\n      eq\n      tag_5\n      jumpi\n      dup1\n      0xb60d4288\n      eq\n      tag_6\n      jumpi\n      dup1\n      0xdba6335f\n      eq\n      tag_7\n      jumpi\n      dup1\n      0xdc0d3dff\n      eq\n      tag_8\n      jumpi\n      jump(tag_2)\n    tag_1:\n      jumpi(tag_2, calldatasize)\n        /* \"contracts/fundMe.sol\":1376:1382  fund() */\n      tag_11\n        /* \"contracts/fundMe.sol\":1376:1380  fund */\n      tag_12\n        /* \"contracts/fundMe.sol\":1376:1382  fund() */\n      jump\t// in\n    tag_11:\n        /* \"contracts/fundMe.sol\":95:1447  contract FundMe{... */\n      stop\n    tag_2:\n        /* \"contracts/fundMe.sol\":1431:1437  fund() */\n      tag_15\n        /* \"contracts/fundMe.sol\":1431:1435  fund */\n      tag_12\n        /* \"contracts/fundMe.sol\":1431:1437  fund() */\n      jump\t// in\n    tag_15:\n        /* \"contracts/fundMe.sol\":95:1447  contract FundMe{... */\n      stop\n        /* \"contracts/fundMe.sol\":159:202  uint256 public constant MIN_USD = 50 * 1e18 */\n    tag_3:\n      callvalue\n      dup1\n      iszero\n      tag_16\n      jumpi\n      0x00\n      dup1\n      revert\n    tag_16:\n      pop\n      tag_17\n      tag_18\n      jump\t// in\n    tag_17:\n      mload(0x40)\n      tag_19\n      swap2\n      swap1\n      tag_20\n      jump\t// in\n    tag_19:\n      mload(0x40)\n      dup1\n      swap2\n      sub\n      swap1\n      return\n        /* \"contracts/fundMe.sol\":606:1211  function withdraw() public onlyOwner{... */\n    tag_4:\n      callvalue\n      dup1\n      iszero\n      tag_21\n      jumpi\n      0x00\n      dup1\n      revert\n    tag_21:\n      pop\n      tag_22\n      tag_23\n      jump\t// in\n    tag_22:\n      stop\n        /* \"contracts/fundMe.sol\":276:330  mapping(address=>uint256) public addressToAmountFunded */\n    tag_5:\n      callvalue\n      dup1\n      iszero\n      tag_24\n      jumpi\n      0x00\n      dup1\n      revert\n    tag_24:\n      pop\n      tag_25\n      0x04\n      dup1\n      calldatasize\n      sub\n      dup2\n      add\n      swap1\n      tag_26\n      swap2\n      swap1\n      tag_27\n      jump\t// in\n    tag_26:\n      tag_28\n      jump\t// in\n    tag_25:\n      mload(0x40)\n      tag_29\n      swap2\n      swap1\n      tag_20\n      jump\t// in\n    tag_29:\n      mload(0x40)\n      dup1\n      swap2\n      sub\n      swap1\n      return\n        /* \"contracts/fundMe.sol\":395:596  function fund() public payable {... */\n    tag_6:\n      tag_30\n      tag_12\n      jump\t// in\n    tag_30:\n      stop\n        /* \"contracts/fundMe.sol\":208:240  address public immutable i_owner */\n    tag_7:\n      callvalue\n      dup1\n      iszero\n      tag_31\n      jumpi\n      0x00\n      dup1\n      revert\n    tag_31:\n      pop\n      tag_32\n      tag_33\n      jump\t// in\n    tag_32:\n      mload(0x40)\n      tag_34\n      swap2\n      swap1\n      tag_35\n      jump\t// in\n    tag_34:\n      mload(0x40)\n      dup1\n      swap2\n      sub\n      swap1\n      return\n        /* \"contracts/fundMe.sol\":246:270  address[] public funders */\n    tag_8:\n      callvalue\n      dup1\n      iszero\n      tag_36\n      jumpi\n      0x00\n      dup1\n      revert\n    tag_36:\n      pop\n      tag_37\n      0x04\n      dup1\n      calldatasize\n      sub\n      dup2\n      add\n      swap1\n      tag_38\n      swap2\n      swap1\n      tag_39\n      jump\t// in\n    tag_38:\n      tag_40\n      jump\t// in\n    tag_37:\n      mload(0x40)\n      tag_41\n      swap2\n      swap1\n      tag_35\n      jump\t// in\n    tag_41:\n      mload(0x40)\n      dup1\n      swap2\n      sub\n      swap1\n      return\n        /* \"contracts/fundMe.sol\":395:596  function fund() public payable {... */\n    tag_12:\n        /* \"contracts/fundMe.sol\":193:202  50 * 1e18 */\n      0x02b5e3af16b1880000\n        /* \"contracts/fundMe.sol\":441:470  msg.value.getConversionRate() */\n      tag_43\n        /* \"contracts/fundMe.sol\":441:450  msg.value */\n      callvalue\n        /* \"contracts/fundMe.sol\":441:468  msg.value.getConversionRate */\n      tag_44\n        /* \"contracts/fundMe.sol\":441:470  msg.value.getConversionRate() */\n      jump\t// in\n    tag_43:\n        /* \"contracts/fundMe.sol\":441:481  msg.value.getConversionRate() >= MIN_USD */\n      lt\n      iszero\n        /* \"contracts/fundMe.sol\":433:506  require(msg.value.getConversionRate() >= MIN_USD, \"Minimun amount 50INR\") */\n      tag_45\n      jumpi\n      mload(0x40)\n      0x08c379a000000000000000000000000000000000000000000000000000000000\n      dup2\n      mstore\n      0x04\n      add\n      tag_46\n      swap1\n      tag_47\n      jump\t// in\n    tag_46:\n      mload(0x40)\n      dup1\n      swap2\n      sub\n      swap1\n      revert\n    tag_45:\n        /* \"contracts/fundMe.sol\":513:520  funders */\n      0x00\n        /* \"contracts/fundMe.sol\":526:536  msg.sender */\n      caller\n        /* \"contracts/fundMe.sol\":513:537  funders.push(msg.sender) */\n      swap1\n      dup1\n      0x01\n      dup2\n      sload\n      add\n      dup1\n      dup3\n      sstore\n      dup1\n      swap2\n      pop\n      pop\n      0x01\n      swap1\n      sub\n      swap1\n      0x00\n      mstore\n      keccak256(0x00, 0x20)\n      add\n      0x00\n      swap1\n      swap2\n      swap1\n      swap2\n      swap1\n      swap2\n      0x0100\n      exp\n      dup2\n      sload\n      dup2\n      0xffffffffffffffffffffffffffffffffffffffff\n      mul\n      not\n      and\n      swap1\n      dup4\n      0xffffffffffffffffffffffffffffffffffffffff\n      and\n      mul\n      or\n      swap1\n      sstore\n      pop\n        /* \"contracts/fundMe.sol\":580:589  msg.value */\n      callvalue\n        /* \"contracts/fundMe.sol\":544:565  addressToAmountFunded */\n      0x01\n        /* \"contracts/fundMe.sol\":544:577  addressToAmountFunded[msg.sender] */\n      0x00\n        /* \"contracts/fundMe.sol\":566:576  msg.sender */\n      caller\n        /* \"contracts/fundMe.sol\":544:577  addressToAmountFunded[msg.sender] */\n      0xffffffffffffffffffffffffffffffffffffffff\n      and\n      0xffffffffffffffffffffffffffffffffffffffff\n      and\n      dup2\n      mstore\n      0x20\n      add\n      swap1\n      dup2\n      mstore\n      0x20\n      add\n      0x00\n      keccak256\n        /* \"contracts/fundMe.sol\":544:589  addressToAmountFunded[msg.sender] = msg.value */\n      dup2\n      swap1\n      sstore\n      pop\n        /* \"contracts/fundMe.sol\":395:596  function fund() public payable {... */\n      jump\t// out\n        /* \"contracts/fundMe.sol\":159:202  uint256 public constant MIN_USD = 50 * 1e18 */\n    tag_18:\n        /* \"contracts/fundMe.sol\":193:202  50 * 1e18 */\n      0x02b5e3af16b1880000\n        /* \"contracts/fundMe.sol\":159:202  uint256 public constant MIN_USD = 50 * 1e18 */\n      dup2\n      jump\t// out\n        /* \"contracts/fundMe.sol\":606:1211  function withdraw() public onlyOwner{... */\n    tag_23:\n        /* \"contracts/fundMe.sol\":1271:1278  i_owner */\n      immutable(\"0x59d26ca75eb04b47ab1bca5d789d02e4d0cf9ff8cb49c9041caeeeab4eccafbf\")\n        /* \"contracts/fundMe.sol\":1257:1278  msg.sender == i_owner */\n      0xffffffffffffffffffffffffffffffffffffffff\n      and\n        /* \"contracts/fundMe.sol\":1257:1267  msg.sender */\n      caller\n        /* \"contracts/fundMe.sol\":1257:1278  msg.sender == i_owner */\n      0xffffffffffffffffffffffffffffffffffffffff\n      and\n      eq\n        /* \"contracts/fundMe.sol\":1249:1315  require(msg.sender == i_owner,\"Only owner can call this function\") */\n      tag_50\n      jumpi\n      mload(0x40)\n      0x08c379a000000000000000000000000000000000000000000000000000000000\n      dup2\n      mstore\n      0x04\n      add\n      tag_51\n      swap1\n      tag_52\n      jump\t// in\n    tag_51:\n      mload(0x40)\n      dup1\n      swap2\n      sub\n      swap1\n      revert\n    tag_50:\n        /* \"contracts/fundMe.sol\":655:666  uint256 idx */\n      0x00\n        /* \"contracts/fundMe.sol\":651:806  for(uint256 idx = 0;idx<funders.length;idx++){... */\n    tag_54:\n        /* \"contracts/fundMe.sol\":675:682  funders */\n      0x00\n        /* \"contracts/fundMe.sol\":675:689  funders.length */\n      dup1\n      sload\n      swap1\n      pop\n        /* \"contracts/fundMe.sol\":671:674  idx */\n      dup2\n        /* \"contracts/fundMe.sol\":671:689  idx<funders.length */\n      lt\n        /* \"contracts/fundMe.sol\":651:806  for(uint256 idx = 0;idx<funders.length;idx++){... */\n      iszero\n      tag_55\n      jumpi\n        /* \"contracts/fundMe.sol\":708:729  address funderAddress */\n      0x00\n        /* \"contracts/fundMe.sol\":732:739  funders */\n      dup1\n        /* \"contracts/fundMe.sol\":740:743  idx */\n      dup3\n        /* \"contracts/fundMe.sol\":732:744  funders[idx] */\n      dup2\n      sload\n      dup2\n      lt\n      tag_57\n      jumpi\n      tag_58\n      tag_59\n      jump\t// in\n    tag_58:\n    tag_57:\n      swap1\n      0x00\n      mstore\n      keccak256(0x00, 0x20)\n      add\n      0x00\n      swap1\n      sload\n      swap1\n      0x0100\n      exp\n      swap1\n      div\n      0xffffffffffffffffffffffffffffffffffffffff\n      and\n        /* \"contracts/fundMe.sol\":708:744  address funderAddress = funders[idx] */\n      swap1\n      pop\n        /* \"contracts/fundMe.sol\":795:796  0 */\n      0x00\n        /* \"contracts/fundMe.sol\":756:777  addressToAmountFunded */\n      0x01\n        /* \"contracts/fundMe.sol\":756:792  addressToAmountFunded[funderAddress] */\n      0x00\n        /* \"contracts/fundMe.sol\":778:791  funderAddress */\n      dup4\n        /* \"contracts/fundMe.sol\":756:792  addressToAmountFunded[funderAddress] */\n      0xffffffffffffffffffffffffffffffffffffffff\n      and\n      0xffffffffffffffffffffffffffffffffffffffff\n      and\n      dup2\n      mstore\n      0x20\n      add\n      swap1\n      dup2\n      mstore\n      0x20\n      add\n      0x00\n      keccak256\n        /* \"contracts/fundMe.sol\":756:796  addressToAmountFunded[funderAddress] = 0 */\n      dup2\n      swap1\n      sstore\n      pop\n        /* \"contracts/fundMe.sol\":696:806  {... */\n      pop\n        /* \"contracts/fundMe.sol\":690:695  idx++ */\n      dup1\n      dup1\n      0x01\n      add\n      swap2\n      pop\n      pop\n        /* \"contracts/fundMe.sol\":651:806  for(uint256 idx = 0;idx<funders.length;idx++){... */\n      jump(tag_54)\n    tag_55:\n      pop\n        /* \"contracts/fundMe.sol\":840:841  0 */\n      0x00\n        /* \"contracts/fundMe.sol\":826:842  new address[](0) */\n      0xffffffffffffffff\n      dup2\n      gt\n      iszero\n      tag_61\n      jumpi\n      tag_62\n      tag_63\n      jump\t// in\n    tag_62:\n    tag_61:\n      mload(0x40)\n      swap1\n      dup1\n      dup3\n      mstore\n      dup1\n      0x20\n      mul\n      0x20\n      add\n      dup3\n      add\n      0x40\n      mstore\n      dup1\n      iszero\n      tag_64\n      jumpi\n      dup2\n      0x20\n      add\n      0x20\n      dup3\n      mul\n      dup1\n      calldatasize\n      dup4\n      calldatacopy\n      dup1\n      dup3\n      add\n      swap2\n      pop\n      pop\n      swap1\n      pop\n    tag_64:\n      pop\n        /* \"contracts/fundMe.sol\":816:823  funders */\n      0x00\n        /* \"contracts/fundMe.sol\":816:842  funders = new address[](0) */\n      swap1\n      dup1\n      mload\n      swap1\n      0x20\n      add\n      swap1\n      tag_65\n      swap3\n      swap2\n      swap1\n      tag_66\n      jump\t// in\n    tag_65:\n      pop\n        /* \"contracts/fundMe.sol\":1082:1098  bool callSuccess */\n      0x00\n        /* \"contracts/fundMe.sol\":1112:1122  msg.sender */\n      caller\n        /* \"contracts/fundMe.sol\":1104:1128  payable(msg.sender).call */\n      0xffffffffffffffffffffffffffffffffffffffff\n      and\n        /* \"contracts/fundMe.sol\":1135:1156  address(this).balance */\n      selfbalance\n        /* \"contracts/fundMe.sol\":1104:1161  payable(msg.sender).call{value:address(this).balance}(\"\") */\n      mload(0x40)\n      tag_67\n      swap1\n      tag_68\n      jump\t// in\n    tag_67:\n      0x00\n      mload(0x40)\n      dup1\n      dup4\n      sub\n      dup2\n      dup6\n      dup8\n      gas\n      call\n      swap3\n      pop\n      pop\n      pop\n      returndatasize\n      dup1\n      0x00\n      dup2\n      eq\n      tag_71\n      jumpi\n      mload(0x40)\n      swap2\n      pop\n      and(add(returndatasize, 0x3f), not(0x1f))\n      dup3\n      add\n      0x40\n      mstore\n      returndatasize\n      dup3\n      mstore\n      returndatasize\n      0x00\n      0x20\n      dup5\n      add\n      returndatacopy\n      jump(tag_70)\n    tag_71:\n      0x60\n      swap2\n      pop\n    tag_70:\n      pop\n        /* \"contracts/fundMe.sol\":1081:1161  (bool callSuccess, ) = payable(msg.sender).call{value:address(this).balance}(\"\") */\n      pop\n      swap1\n      pop\n        /* \"contracts/fundMe.sol\":1178:1189  callSuccess */\n      dup1\n        /* \"contracts/fundMe.sol\":1170:1204  require(callSuccess,\"Send Failed\") */\n      tag_72\n      jumpi\n      mload(0x40)\n      0x08c379a000000000000000000000000000000000000000000000000000000000\n      dup2\n      mstore\n      0x04\n      add\n      tag_73\n      swap1\n      tag_74\n      jump\t// in\n    tag_73:\n      mload(0x40)\n      dup1\n      swap2\n      sub\n      swap1\n      revert\n    tag_72:\n        /* \"contracts/fundMe.sol\":642:1211  {... */\n      pop\n        /* \"contracts/fundMe.sol\":606:1211  function withdraw() public onlyOwner{... */\n      jump\t// out\n        /* \"contracts/fundMe.sol\":276:330  mapping(address=>uint256) public addressToAmountFunded */\n    tag_28:\n      mstore(0x20, 0x01)\n      dup1\n      0x00\n      mstore\n      keccak256(0x00, 0x40)\n      0x00\n      swap2\n      pop\n      swap1\n      pop\n      sload\n      dup2\n      jump\t// out\n        /* \"contracts/fundMe.sol\":208:240  address public immutable i_owner */\n    tag_33:\n      immutable(\"0x59d26ca75eb04b47ab1bca5d789d02e4d0cf9ff8cb49c9041caeeeab4eccafbf\")\n      dup2\n      jump\t// out\n        /* \"contracts/fundMe.sol\":246:270  address[] public funders */\n    tag_40:\n      0x00\n      dup2\n      dup2\n      sload\n      dup2\n      lt\n      tag_75\n      jumpi\n      0x00\n      dup1\n      revert\n    tag_75:\n      swap1\n      0x00\n      mstore\n      keccak256(0x00, 0x20)\n      add\n      0x00\n      swap2\n      pop\n      sload\n      swap1\n      0x0100\n      exp\n      swap1\n      div\n      0xffffffffffffffffffffffffffffffffffffffff\n      and\n      dup2\n      jump\t// out\n        /* \"contracts/priceConverter.sol\":474:679  function getConversionRate(uint256 ethAmount) internal view returns (uint256) {... */\n    tag_44:\n        /* \"contracts/priceConverter.sol\":543:550  uint256 */\n      0x00\n        /* \"contracts/priceConverter.sol\":559:575  uint256 ethPrice */\n      dup1\n        /* \"contracts/priceConverter.sol\":578:588  getPrice() */\n      tag_78\n        /* \"contracts/priceConverter.sol\":578:586  getPrice */\n      tag_79\n        /* \"contracts/priceConverter.sol\":578:588  getPrice() */\n      jump\t// in\n    tag_78:\n        /* \"contracts/priceConverter.sol\":559:588  uint256 ethPrice = getPrice() */\n      swap1\n      pop\n        /* \"contracts/priceConverter.sol\":595:614  uint ethAmountInUsd */\n      0x00\n        /* \"contracts/priceConverter.sol\":640:644  1e18 */\n      0x0de0b6b3a7640000\n        /* \"contracts/priceConverter.sol\":627:636  ethAmount */\n      dup5\n        /* \"contracts/priceConverter.sol\":618:626  ethPrice */\n      dup4\n        /* \"contracts/priceConverter.sol\":618:636  ethPrice*ethAmount */\n      tag_80\n      swap2\n      swap1\n      tag_81\n      jump\t// in\n    tag_80:\n        /* \"contracts/priceConverter.sol\":617:644  (ethPrice*ethAmount) / 1e18 */\n      tag_82\n      swap2\n      swap1\n      tag_83\n      jump\t// in\n    tag_82:\n        /* \"contracts/priceConverter.sol\":595:644  uint ethAmountInUsd = (ethPrice*ethAmount) / 1e18 */\n      swap1\n      pop\n        /* \"contracts/priceConverter.sol\":658:672  ethAmountInUsd */\n      dup1\n        /* \"contracts/priceConverter.sol\":651:672  return ethAmountInUsd */\n      swap3\n      pop\n      pop\n      pop\n        /* \"contracts/priceConverter.sol\":474:679  function getConversionRate(uint256 ethAmount) internal view returns (uint256) {... */\n      swap2\n      swap1\n      pop\n      jump\t// out\n        /* \"contracts/priceConverter.sol\":206:467  function getPrice() internal view returns (uint256){... */\n    tag_79:\n        /* \"contracts/priceConverter.sol\":249:256  uint256 */\n      0x00\n        /* \"contracts/priceConverter.sol\":266:297  AggregatorV3Interface priceFeed */\n      dup1\n        /* \"contracts/priceConverter.sol\":322:364  0x1b44F3514812d835EB1BDB0acB33d3fA3351Ee43 */\n      0x1b44f3514812d835eb1bdb0acb33d3fa3351ee43\n        /* \"contracts/priceConverter.sol\":266:365  AggregatorV3Interface priceFeed = AggregatorV3Interface(0x1b44F3514812d835EB1BDB0acB33d3fA3351Ee43) */\n      swap1\n      pop\n        /* \"contracts/priceConverter.sol\":378:390  int256 price */\n      0x00\n        /* \"contracts/priceConverter.sol\":397:406  priceFeed */\n      dup2\n        /* \"contracts/priceConverter.sol\":397:422  priceFeed.latestRoundData */\n      0xffffffffffffffffffffffffffffffffffffffff\n      and\n      0xfeaf968c\n        /* \"contracts/priceConverter.sol\":397:424  priceFeed.latestRoundData() */\n      mload(0x40)\n      dup2\n      0xffffffff\n      and\n      0xe0\n      shl\n      dup2\n      mstore\n      0x04\n      add\n      0xa0\n      mload(0x40)\n      dup1\n      dup4\n      sub\n      dup2\n      dup7\n      gas\n      staticcall\n      iszero\n      dup1\n      iszero\n      tag_86\n      jumpi\n      returndatasize\n      0x00\n      dup1\n      returndatacopy\n      revert(0x00, returndatasize)\n    tag_86:\n      pop\n      pop\n      pop\n      pop\n      mload(0x40)\n      returndatasize\n      not(0x1f)\n      0x1f\n      dup3\n      add\n      and\n      dup3\n      add\n      dup1\n      0x40\n      mstore\n      pop\n      dup2\n      add\n      swap1\n      tag_87\n      swap2\n      swap1\n      tag_88\n      jump\t// in\n    tag_87:\n        /* \"contracts/priceConverter.sol\":376:424  (,int256 price,,,) = priceFeed.latestRoundData() */\n      pop\n      pop\n      pop\n      swap2\n      pop\n      pop\n        /* \"contracts/priceConverter.sol\":455:459  1e10 */\n      0x02540be400\n        /* \"contracts/priceConverter.sol\":447:452  price */\n      dup2\n        /* \"contracts/priceConverter.sol\":447:459  price * 1e10 */\n      tag_89\n      swap2\n      swap1\n      tag_90\n      jump\t// in\n    tag_89:\n        /* \"contracts/priceConverter.sol\":435:460  return uint(price * 1e10) */\n      swap3\n      pop\n      pop\n      pop\n        /* \"contracts/priceConverter.sol\":206:467  function getPrice() internal view returns (uint256){... */\n      swap1\n      jump\t// out\n    tag_66:\n      dup3\n      dup1\n      sload\n      dup3\n      dup3\n      sstore\n      swap1\n      0x00\n      mstore\n      keccak256(0x00, 0x20)\n      swap1\n      dup2\n      add\n      swap3\n      dup3\n      iszero\n      tag_91\n      jumpi\n      swap2\n      0x20\n      mul\n      dup3\n      add\n    tag_92:\n      dup3\n      dup2\n      gt\n      iszero\n      tag_93\n      jumpi\n      dup3\n      mload\n      dup3\n      exp(0x0100, 0x00)\n      dup2\n      sload\n      dup2\n      0xffffffffffffffffffffffffffffffffffffffff\n      mul\n      not\n      and\n      swap1\n      dup4\n      0xffffffffffffffffffffffffffffffffffffffff\n      and\n      mul\n      or\n      swap1\n      sstore\n      pop\n      swap2\n      0x20\n      add\n      swap2\n      swap1\n      0x01\n      add\n      swap1\n      jump(tag_92)\n    tag_93:\n    tag_91:\n      pop\n      swap1\n      pop\n      tag_94\n      swap2\n      swap1\n      tag_95\n      jump\t// in\n    tag_94:\n      pop\n      swap1\n      jump\t// out\n    tag_95:\n    tag_96:\n      dup1\n      dup3\n      gt\n      iszero\n      tag_97\n      jumpi\n      0x00\n      dup2\n      0x00\n      swap1\n      sstore\n      pop\n      0x01\n      add\n      jump(tag_96)\n    tag_97:\n      pop\n      swap1\n      jump\t// out\n        /* \"#utility.yul\":7:84   */\n    tag_98:\n        /* \"#utility.yul\":44:51   */\n      0x00\n        /* \"#utility.yul\":73:78   */\n      dup2\n        /* \"#utility.yul\":62:78   */\n      swap1\n      pop\n        /* \"#utility.yul\":7:84   */\n      swap2\n      swap1\n      pop\n      jump\t// out\n        /* \"#utility.yul\":90:208   */\n    tag_99:\n        /* \"#utility.yul\":177:201   */\n      tag_132\n        /* \"#utility.yul\":195:200   */\n      dup2\n        /* \"#utility.yul\":177:201   */\n      tag_98\n      jump\t// in\n    tag_132:\n        /* \"#utility.yul\":172:175   */\n      dup3\n        /* \"#utility.yul\":165:202   */\n      mstore\n        /* \"#utility.yul\":90:208   */\n      pop\n      pop\n      jump\t// out\n        /* \"#utility.yul\":214:436   */\n    tag_20:\n        /* \"#utility.yul\":307:311   */\n      0x00\n        /* \"#utility.yul\":345:347   */\n      0x20\n        /* \"#utility.yul\":334:343   */\n      dup3\n        /* \"#utility.yul\":330:348   */\n      add\n        /* \"#utility.yul\":322:348   */\n      swap1\n      pop\n        /* \"#utility.yul\":358:429   */\n      tag_134\n        /* \"#utility.yul\":426:427   */\n      0x00\n        /* \"#utility.yul\":415:424   */\n      dup4\n        /* \"#utility.yul\":411:428   */\n      add\n        /* \"#utility.yul\":402:408   */\n      dup5\n        /* \"#utility.yul\":358:429   */\n      tag_99\n      jump\t// in\n    tag_134:\n        /* \"#utility.yul\":214:436   */\n      swap3\n      swap2\n      pop\n      pop\n      jump\t// out\n        /* \"#utility.yul\":523:640   */\n    tag_101:\n        /* \"#utility.yul\":632:633   */\n      0x00\n        /* \"#utility.yul\":629:630   */\n      dup1\n        /* \"#utility.yul\":622:634   */\n      revert\n        /* \"#utility.yul\":769:895   */\n    tag_103:\n        /* \"#utility.yul\":806:813   */\n      0x00\n        /* \"#utility.yul\":846:888   */\n      0xffffffffffffffffffffffffffffffffffffffff\n        /* \"#utility.yul\":839:844   */\n      dup3\n        /* \"#utility.yul\":835:889   */\n      and\n        /* \"#utility.yul\":824:889   */\n      swap1\n      pop\n        /* \"#utility.yul\":769:895   */\n      swap2\n      swap1\n      pop\n      jump\t// out\n        /* \"#utility.yul\":901:997   */\n    tag_104:\n        /* \"#utility.yul\":938:945   */\n      0x00\n        /* \"#utility.yul\":967:991   */\n      tag_140\n        /* \"#utility.yul\":985:990   */\n      dup3\n        /* \"#utility.yul\":967:991   */\n      tag_103\n      jump\t// in\n    tag_140:\n        /* \"#utility.yul\":956:991   */\n      swap1\n      pop\n        /* \"#utility.yul\":901:997   */\n      swap2\n      swap1\n      pop\n      jump\t// out\n        /* \"#utility.yul\":1003:1125   */\n    tag_105:\n        /* \"#utility.yul\":1076:1100   */\n      tag_142\n        /* \"#utility.yul\":1094:1099   */\n      dup2\n        /* \"#utility.yul\":1076:1100   */\n      tag_104\n      jump\t// in\n    tag_142:\n        /* \"#utility.yul\":1069:1074   */\n      dup2\n        /* \"#utility.yul\":1066:1101   */\n      eq\n        /* \"#utility.yul\":1056:1119   */\n      tag_143\n      jumpi\n        /* \"#utility.yul\":1115:1116   */\n      0x00\n        /* \"#utility.yul\":1112:1113   */\n      dup1\n        /* \"#utility.yul\":1105:1117   */\n      revert\n        /* \"#utility.yul\":1056:1119   */\n    tag_143:\n        /* \"#utility.yul\":1003:1125   */\n      pop\n      jump\t// out\n        /* \"#utility.yul\":1131:1270   */\n    tag_106:\n        /* \"#utility.yul\":1177:1182   */\n      0x00\n        /* \"#utility.yul\":1215:1221   */\n      dup2\n        /* \"#utility.yul\":1202:1222   */\n      calldataload\n        /* \"#utility.yul\":1193:1222   */\n      swap1\n      pop\n        /* \"#utility.yul\":1231:1264   */\n      tag_145\n        /* \"#utility.yul\":1258:1263   */\n      dup2\n        /* \"#utility.yul\":1231:1264   */\n      tag_105\n      jump\t// in\n    tag_145:\n        /* \"#utility.yul\":1131:1270   */\n      swap3\n      swap2\n      pop\n      pop\n      jump\t// out\n        /* \"#utility.yul\":1276:1605   */\n    tag_27:\n        /* \"#utility.yul\":1335:1341   */\n      0x00\n        /* \"#utility.yul\":1384:1386   */\n      0x20\n        /* \"#utility.yul\":1372:1381   */\n      dup3\n        /* \"#utility.yul\":1363:1370   */\n      dup5\n        /* \"#utility.yul\":1359:1382   */\n      sub\n        /* \"#utility.yul\":1355:1387   */\n      slt\n        /* \"#utility.yul\":1352:1471   */\n      iszero\n      tag_147\n      jumpi\n        /* \"#utility.yul\":1390:1469   */\n      tag_148\n      tag_101\n      jump\t// in\n    tag_148:\n        /* \"#utility.yul\":1352:1471   */\n    tag_147:\n        /* \"#utility.yul\":1510:1511   */\n      0x00\n        /* \"#utility.yul\":1535:1588   */\n      tag_149\n        /* \"#utility.yul\":1580:1587   */\n      dup5\n        /* \"#utility.yul\":1571:1577   */\n      dup3\n        /* \"#utility.yul\":1560:1569   */\n      dup6\n        /* \"#utility.yul\":1556:1578   */\n      add\n        /* \"#utility.yul\":1535:1588   */\n      tag_106\n      jump\t// in\n    tag_149:\n        /* \"#utility.yul\":1525:1588   */\n      swap2\n      pop\n        /* \"#utility.yul\":1481:1598   */\n      pop\n        /* \"#utility.yul\":1276:1605   */\n      swap3\n      swap2\n      pop\n      pop\n      jump\t// out\n        /* \"#utility.yul\":1611:1729   */\n    tag_107:\n        /* \"#utility.yul\":1698:1722   */\n      tag_151\n        /* \"#utility.yul\":1716:1721   */\n      dup2\n        /* \"#utility.yul\":1698:1722   */\n      tag_104\n      jump\t// in\n    tag_151:\n        /* \"#utility.yul\":1693:1696   */\n      dup3\n        /* \"#utility.yul\":1686:1723   */\n      mstore\n        /* \"#utility.yul\":1611:1729   */\n      pop\n      pop\n      jump\t// out\n        /* \"#utility.yul\":1735:1957   */\n    tag_35:\n        /* \"#utility.yul\":1828:1832   */\n      0x00\n        /* \"#utility.yul\":1866:1868   */\n      0x20\n        /* \"#utility.yul\":1855:1864   */\n      dup3\n        /* \"#utility.yul\":1851:1869   */\n      add\n        /* \"#utility.yul\":1843:1869   */\n      swap1\n      pop\n        /* \"#utility.yul\":1879:1950   */\n      tag_153\n        /* \"#utility.yul\":1947:1948   */\n      0x00\n        /* \"#utility.yul\":1936:1945   */\n      dup4\n        /* \"#utility.yul\":1932:1949   */\n      add\n        /* \"#utility.yul\":1923:1929   */\n      dup5\n        /* \"#utility.yul\":1879:1950   */\n      tag_107\n      jump\t// in\n    tag_153:\n        /* \"#utility.yul\":1735:1957   */\n      swap3\n      swap2\n      pop\n      pop\n      jump\t// out\n        /* \"#utility.yul\":1963:2085   */\n    tag_108:\n        /* \"#utility.yul\":2036:2060   */\n      tag_155\n        /* \"#utility.yul\":2054:2059   */\n      dup2\n        /* \"#utility.yul\":2036:2060   */\n      tag_98\n      jump\t// in\n    tag_155:\n        /* \"#utility.yul\":2029:2034   */\n      dup2\n        /* \"#utility.yul\":2026:2061   */\n      eq\n        /* \"#utility.yul\":2016:2079   */\n      tag_156\n      jumpi\n        /* \"#utility.yul\":2075:2076   */\n      0x00\n        /* \"#utility.yul\":2072:2073   */\n      dup1\n        /* \"#utility.yul\":2065:2077   */\n      revert\n        /* \"#utility.yul\":2016:2079   */\n    tag_156:\n        /* \"#utility.yul\":1963:2085   */\n      pop\n      jump\t// out\n        /* \"#utility.yul\":2091:2230   */\n    tag_109:\n        /* \"#utility.yul\":2137:2142   */\n      0x00\n        /* \"#utility.yul\":2175:2181   */\n      dup2\n        /* \"#utility.yul\":2162:2182   */\n      calldataload\n        /* \"#utility.yul\":2153:2182   */\n      swap1\n      pop\n        /* \"#utility.yul\":2191:2224   */\n      tag_158\n        /* \"#utility.yul\":2218:2223   */\n      dup2\n        /* \"#utility.yul\":2191:2224   */\n      tag_108\n      jump\t// in\n    tag_158:\n        /* \"#utility.yul\":2091:2230   */\n      swap3\n      swap2\n      pop\n      pop\n      jump\t// out\n        /* \"#utility.yul\":2236:2565   */\n    tag_39:\n        /* \"#utility.yul\":2295:2301   */\n      0x00\n        /* \"#utility.yul\":2344:2346   */\n      0x20\n        /* \"#utility.yul\":2332:2341   */\n      dup3\n        /* \"#utility.yul\":2323:2330   */\n      dup5\n        /* \"#utility.yul\":2319:2342   */\n      sub\n        /* \"#utility.yul\":2315:2347   */\n      slt\n        /* \"#utility.yul\":2312:2431   */\n      iszero\n      tag_160\n      jumpi\n        /* \"#utility.yul\":2350:2429   */\n      tag_161\n      tag_101\n      jump\t// in\n    tag_161:\n        /* \"#utility.yul\":2312:2431   */\n    tag_160:\n        /* \"#utility.yul\":2470:2471   */\n      0x00\n        /* \"#utility.yul\":2495:2548   */\n      tag_162\n        /* \"#utility.yul\":2540:2547   */\n      dup5\n        /* \"#utility.yul\":2531:2537   */\n      dup3\n        /* \"#utility.yul\":2520:2529   */\n      dup6\n        /* \"#utility.yul\":2516:2538   */\n      add\n        /* \"#utility.yul\":2495:2548   */\n      tag_109\n      jump\t// in\n    tag_162:\n        /* \"#utility.yul\":2485:2548   */\n      swap2\n      pop\n        /* \"#utility.yul\":2441:2558   */\n      pop\n        /* \"#utility.yul\":2236:2565   */\n      swap3\n      swap2\n      pop\n      pop\n      jump\t// out\n        /* \"#utility.yul\":2571:2740   */\n    tag_110:\n        /* \"#utility.yul\":2655:2666   */\n      0x00\n        /* \"#utility.yul\":2689:2695   */\n      dup3\n        /* \"#utility.yul\":2684:2687   */\n      dup3\n        /* \"#utility.yul\":2677:2696   */\n      mstore\n        /* \"#utility.yul\":2729:2733   */\n      0x20\n        /* \"#utility.yul\":2724:2727   */\n      dup3\n        /* \"#utility.yul\":2720:2734   */\n      add\n        /* \"#utility.yul\":2705:2734   */\n      swap1\n      pop\n        /* \"#utility.yul\":2571:2740   */\n      swap3\n      swap2\n      pop\n      pop\n      jump\t// out\n        /* \"#utility.yul\":2746:2916   */\n    tag_111:\n        /* \"#utility.yul\":2886:2908   */\n      0x4d696e696d756e20616d6f756e74203530494e52000000000000000000000000\n        /* \"#utility.yul\":2882:2883   */\n      0x00\n        /* \"#utility.yul\":2874:2880   */\n      dup3\n        /* \"#utility.yul\":2870:2884   */\n      add\n        /* \"#utility.yul\":2863:2909   */\n      mstore\n        /* \"#utility.yul\":2746:2916   */\n      pop\n      jump\t// out\n        /* \"#utility.yul\":2922:3288   */\n    tag_112:\n        /* \"#utility.yul\":3064:3067   */\n      0x00\n        /* \"#utility.yul\":3085:3152   */\n      tag_166\n        /* \"#utility.yul\":3149:3151   */\n      0x14\n        /* \"#utility.yul\":3144:3147   */\n      dup4\n        /* \"#utility.yul\":3085:3152   */\n      tag_110\n      jump\t// in\n    tag_166:\n        /* \"#utility.yul\":3078:3152   */\n      swap2\n      pop\n        /* \"#utility.yul\":3161:3254   */\n      tag_167\n        /* \"#utility.yul\":3250:3253   */\n      dup3\n        /* \"#utility.yul\":3161:3254   */\n      tag_111\n      jump\t// in\n    tag_167:\n        /* \"#utility.yul\":3279:3281   */\n      0x20\n        /* \"#utility.yul\":3274:3277   */\n      dup3\n        /* \"#utility.yul\":3270:3282   */\n      add\n        /* \"#utility.yul\":3263:3282   */\n      swap1\n      pop\n        /* \"#utility.yul\":2922:3288   */\n      swap2\n      swap1\n      pop\n      jump\t// out\n        /* \"#utility.yul\":3294:3713   */\n    tag_47:\n        /* \"#utility.yul\":3460:3464   */\n      0x00\n        /* \"#utility.yul\":3498:3500   */\n      0x20\n        /* \"#utility.yul\":3487:3496   */\n      dup3\n        /* \"#utility.yul\":3483:3501   */\n      add\n        /* \"#utility.yul\":3475:3501   */\n      swap1\n      pop\n        /* \"#utility.yul\":3547:3556   */\n      dup2\n        /* \"#utility.yul\":3541:3545   */\n      dup2\n        /* \"#utility.yul\":3537:3557   */\n      sub\n        /* \"#utility.yul\":3533:3534   */\n      0x00\n        /* \"#utility.yul\":3522:3531   */\n      dup4\n        /* \"#utility.yul\":3518:3535   */\n      add\n        /* \"#utility.yul\":3511:3558   */\n      mstore\n        /* \"#utility.yul\":3575:3706   */\n      tag_169\n        /* \"#utility.yul\":3701:3705   */\n      dup2\n        /* \"#utility.yul\":3575:3706   */\n      tag_112\n      jump\t// in\n    tag_169:\n        /* \"#utility.yul\":3567:3706   */\n      swap1\n      pop\n        /* \"#utility.yul\":3294:3713   */\n      swap2\n      swap1\n      pop\n      jump\t// out\n        /* \"#utility.yul\":3719:3939   */\n    tag_113:\n        /* \"#utility.yul\":3859:3893   */\n      0x4f6e6c79206f776e65722063616e2063616c6c20746869732066756e6374696f\n        /* \"#utility.yul\":3855:3856   */\n      0x00\n        /* \"#utility.yul\":3847:3853   */\n      dup3\n        /* \"#utility.yul\":3843:3857   */\n      add\n        /* \"#utility.yul\":3836:3894   */\n      mstore\n        /* \"#utility.yul\":3928:3931   */\n      0x6e00000000000000000000000000000000000000000000000000000000000000\n        /* \"#utility.yul\":3923:3925   */\n      0x20\n        /* \"#utility.yul\":3915:3921   */\n      dup3\n        /* \"#utility.yul\":3911:3926   */\n      add\n        /* \"#utility.yul\":3904:3932   */\n      mstore\n        /* \"#utility.yul\":3719:3939   */\n      pop\n      jump\t// out\n        /* \"#utility.yul\":3945:4311   */\n    tag_114:\n        /* \"#utility.yul\":4087:4090   */\n      0x00\n        /* \"#utility.yul\":4108:4175   */\n      tag_172\n        /* \"#utility.yul\":4172:4174   */\n      0x21\n        /* \"#utility.yul\":4167:4170   */\n      dup4\n        /* \"#utility.yul\":4108:4175   */\n      tag_110\n      jump\t// in\n    tag_172:\n        /* \"#utility.yul\":4101:4175   */\n      swap2\n      pop\n        /* \"#utility.yul\":4184:4277   */\n      tag_173\n        /* \"#utility.yul\":4273:4276   */\n      dup3\n        /* \"#utility.yul\":4184:4277   */\n      tag_113\n      jump\t// in\n    tag_173:\n        /* \"#utility.yul\":4302:4304   */\n      0x40\n        /* \"#utility.yul\":4297:4300   */\n      dup3\n        /* \"#utility.yul\":4293:4305   */\n      add\n        /* \"#utility.yul\":4286:4305   */\n      swap1\n      pop\n        /* \"#utility.yul\":3945:4311   */\n      swap2\n      swap1\n      pop\n      jump\t// out\n        /* \"#utility.yul\":4317:4736   */\n    tag_52:\n        /* \"#utility.yul\":4483:4487   */\n      0x00\n        /* \"#utility.yul\":4521:4523   */\n      0x20\n        /* \"#utility.yul\":4510:4519   */\n      dup3\n        /* \"#utility.yul\":4506:4524   */\n      add\n        /* \"#utility.yul\":4498:4524   */\n      swap1\n      pop\n        /* \"#utility.yul\":4570:4579   */\n      dup2\n        /* \"#utility.yul\":4564:4568   */\n      dup2\n        /* \"#utility.yul\":4560:4580   */\n      sub\n        /* \"#utility.yul\":4556:4557   */\n      0x00\n        /* \"#utility.yul\":4545:4554   */\n      dup4\n        /* \"#utility.yul\":4541:4558   */\n      add\n        /* \"#utility.yul\":4534:4581   */\n      mstore\n        /* \"#utility.yul\":4598:4729   */\n      tag_175\n        /* \"#utility.yul\":4724:4728   */\n      dup2\n        /* \"#utility.yul\":4598:4729   */\n      tag_114\n      jump\t// in\n    tag_175:\n        /* \"#utility.yul\":4590:4729   */\n      swap1\n      pop\n        /* \"#utility.yul\":4317:4736   */\n      swap2\n      swap1\n      pop\n      jump\t// out\n        /* \"#utility.yul\":4742:4922   */\n    tag_59:\n        /* \"#utility.yul\":4790:4867   */\n      0x4e487b7100000000000000000000000000000000000000000000000000000000\n        /* \"#utility.yul\":4787:4788   */\n      0x00\n        /* \"#utility.yul\":4780:4868   */\n      mstore\n        /* \"#utility.yul\":4887:4891   */\n      0x32\n        /* \"#utility.yul\":4884:4885   */\n      0x04\n        /* \"#utility.yul\":4877:4892   */\n      mstore\n        /* \"#utility.yul\":4911:4915   */\n      0x24\n        /* \"#utility.yul\":4908:4909   */\n      0x00\n        /* \"#utility.yul\":4901:4916   */\n      revert\n        /* \"#utility.yul\":4928:5108   */\n    tag_63:\n        /* \"#utility.yul\":4976:5053   */\n      0x4e487b7100000000000000000000000000000000000000000000000000000000\n        /* \"#utility.yul\":4973:4974   */\n      0x00\n        /* \"#utility.yul\":4966:5054   */\n      mstore\n        /* \"#utility.yul\":5073:5077   */\n      0x41\n        /* \"#utility.yul\":5070:5071   */\n      0x04\n        /* \"#utility.yul\":5063:5078   */\n      mstore\n        /* \"#utility.yul\":5097:5101   */\n      0x24\n        /* \"#utility.yul\":5094:5095   */\n      0x00\n        /* \"#utility.yul\":5087:5102   */\n      revert\n        /* \"#utility.yul\":5114:5261   */\n    tag_115:\n        /* \"#utility.yul\":5215:5226   */\n      0x00\n        /* \"#utility.yul\":5252:5255   */\n      dup2\n        /* \"#utility.yul\":5237:5255   */\n      swap1\n      pop\n        /* \"#utility.yul\":5114:5261   */\n      swap3\n      swap2\n      pop\n      pop\n      jump\t// out\n        /* \"#utility.yul\":5267:5381   */\n    tag_116:\n      pop\n      jump\t// out\n        /* \"#utility.yul\":5387:5785   */\n    tag_117:\n        /* \"#utility.yul\":5546:5549   */\n      0x00\n        /* \"#utility.yul\":5567:5650   */\n      tag_181\n        /* \"#utility.yul\":5648:5649   */\n      0x00\n        /* \"#utility.yul\":5643:5646   */\n      dup4\n        /* \"#utility.yul\":5567:5650   */\n      tag_115\n      jump\t// in\n    tag_181:\n        /* \"#utility.yul\":5560:5650   */\n      swap2\n      pop\n        /* \"#utility.yul\":5659:5752   */\n      tag_182\n        /* \"#utility.yul\":5748:5751   */\n      dup3\n        /* \"#utility.yul\":5659:5752   */\n      tag_116\n      jump\t// in\n    tag_182:\n        /* \"#utility.yul\":5777:5778   */\n      0x00\n        /* \"#utility.yul\":5772:5775   */\n      dup3\n        /* \"#utility.yul\":5768:5779   */\n      add\n        /* \"#utility.yul\":5761:5779   */\n      swap1\n      pop\n        /* \"#utility.yul\":5387:5785   */\n      swap2\n      swap1\n      pop\n      jump\t// out\n        /* \"#utility.yul\":5791:6170   */\n    tag_68:\n        /* \"#utility.yul\":5975:5978   */\n      0x00\n        /* \"#utility.yul\":5997:6144   */\n      tag_184\n        /* \"#utility.yul\":6140:6143   */\n      dup3\n        /* \"#utility.yul\":5997:6144   */\n      tag_117\n      jump\t// in\n    tag_184:\n        /* \"#utility.yul\":5990:6144   */\n      swap2\n      pop\n        /* \"#utility.yul\":6161:6164   */\n      dup2\n        /* \"#utility.yul\":6154:6164   */\n      swap1\n      pop\n        /* \"#utility.yul\":5791:6170   */\n      swap2\n      swap1\n      pop\n      jump\t// out\n        /* \"#utility.yul\":6176:6337   */\n    tag_118:\n        /* \"#utility.yul\":6316:6329   */\n      0x53656e64204661696c6564000000000000000000000000000000000000000000\n        /* \"#utility.yul\":6312:6313   */\n      0x00\n        /* \"#utility.yul\":6304:6310   */\n      dup3\n        /* \"#utility.yul\":6300:6314   */\n      add\n        /* \"#utility.yul\":6293:6330   */\n      mstore\n        /* \"#utility.yul\":6176:6337   */\n      pop\n      jump\t// out\n        /* \"#utility.yul\":6343:6709   */\n    tag_119:\n        /* \"#utility.yul\":6485:6488   */\n      0x00\n        /* \"#utility.yul\":6506:6573   */\n      tag_187\n        /* \"#utility.yul\":6570:6572   */\n      0x0b\n        /* \"#utility.yul\":6565:6568   */\n      dup4\n        /* \"#utility.yul\":6506:6573   */\n      tag_110\n      jump\t// in\n    tag_187:\n        /* \"#utility.yul\":6499:6573   */\n      swap2\n      pop\n        /* \"#utility.yul\":6582:6675   */\n      tag_188\n        /* \"#utility.yul\":6671:6674   */\n      dup3\n        /* \"#utility.yul\":6582:6675   */\n      tag_118\n      jump\t// in\n    tag_188:\n        /* \"#utility.yul\":6700:6702   */\n      0x20\n        /* \"#utility.yul\":6695:6698   */\n      dup3\n        /* \"#utility.yul\":6691:6703   */\n      add\n        /* \"#utility.yul\":6684:6703   */\n      swap1\n      pop\n        /* \"#utility.yul\":6343:6709   */\n      swap2\n      swap1\n      pop\n      jump\t// out\n        /* \"#utility.yul\":6715:7134   */\n    tag_74:\n        /* \"#utility.yul\":6881:6885   */\n      0x00\n        /* \"#utility.yul\":6919:6921   */\n      0x20\n        /* \"#utility.yul\":6908:6917   */\n      dup3\n        /* \"#utility.yul\":6904:6922   */\n      add\n        /* \"#utility.yul\":6896:6922   */\n      swap1\n      pop\n        /* \"#utility.yul\":6968:6977   */\n      dup2\n        /* \"#utility.yul\":6962:6966   */\n      dup2\n        /* \"#utility.yul\":6958:6978   */\n      sub\n        /* \"#utility.yul\":6954:6955   */\n      0x00\n        /* \"#utility.yul\":6943:6952   */\n      dup4\n        /* \"#utility.yul\":6939:6956   */\n      add\n        /* \"#utility.yul\":6932:6979   */\n      mstore\n        /* \"#utility.yul\":6996:7127   */\n      tag_190\n        /* \"#utility.yul\":7122:7126   */\n      dup2\n        /* \"#utility.yul\":6996:7127   */\n      tag_119\n      jump\t// in\n    tag_190:\n        /* \"#utility.yul\":6988:7127   */\n      swap1\n      pop\n        /* \"#utility.yul\":6715:7134   */\n      swap2\n      swap1\n      pop\n      jump\t// out\n        /* \"#utility.yul\":7140:7320   */\n    tag_120:\n        /* \"#utility.yul\":7188:7265   */\n      0x4e487b7100000000000000000000000000000000000000000000000000000000\n        /* \"#utility.yul\":7185:7186   */\n      0x00\n        /* \"#utility.yul\":7178:7266   */\n      mstore\n        /* \"#utility.yul\":7285:7289   */\n      0x11\n        /* \"#utility.yul\":7282:7283   */\n      0x04\n        /* \"#utility.yul\":7275:7290   */\n      mstore\n        /* \"#utility.yul\":7309:7313   */\n      0x24\n        /* \"#utility.yul\":7306:7307   */\n      0x00\n        /* \"#utility.yul\":7299:7314   */\n      revert\n        /* \"#utility.yul\":7326:7736   */\n    tag_81:\n        /* \"#utility.yul\":7366:7373   */\n      0x00\n        /* \"#utility.yul\":7389:7409   */\n      tag_193\n        /* \"#utility.yul\":7407:7408   */\n      dup3\n        /* \"#utility.yul\":7389:7409   */\n      tag_98\n      jump\t// in\n    tag_193:\n        /* \"#utility.yul\":7384:7409   */\n      swap2\n      pop\n        /* \"#utility.yul\":7423:7443   */\n      tag_194\n        /* \"#utility.yul\":7441:7442   */\n      dup4\n        /* \"#utility.yul\":7423:7443   */\n      tag_98\n      jump\t// in\n    tag_194:\n        /* \"#utility.yul\":7418:7443   */\n      swap3\n      pop\n        /* \"#utility.yul\":7478:7479   */\n      dup3\n        /* \"#utility.yul\":7475:7476   */\n      dup3\n        /* \"#utility.yul\":7471:7480   */\n      mul\n        /* \"#utility.yul\":7500:7530   */\n      tag_195\n        /* \"#utility.yul\":7518:7529   */\n      dup2\n        /* \"#utility.yul\":7500:7530   */\n      tag_98\n      jump\t// in\n    tag_195:\n        /* \"#utility.yul\":7489:7530   */\n      swap2\n      pop\n        /* \"#utility.yul\":7679:7680   */\n      dup3\n        /* \"#utility.yul\":7670:7677   */\n      dup3\n        /* \"#utility.yul\":7666:7681   */\n      div\n        /* \"#utility.yul\":7663:7664   */\n      dup5\n        /* \"#utility.yul\":7660:7682   */\n      eq\n        /* \"#utility.yul\":7640:7641   */\n      dup4\n        /* \"#utility.yul\":7633:7642   */\n      iszero\n        /* \"#utility.yul\":7613:7696   */\n      or\n        /* \"#utility.yul\":7590:7729   */\n      tag_196\n      jumpi\n        /* \"#utility.yul\":7709:7727   */\n      tag_197\n      tag_120\n      jump\t// in\n    tag_197:\n        /* \"#utility.yul\":7590:7729   */\n    tag_196:\n        /* \"#utility.yul\":7374:7736   */\n      pop\n        /* \"#utility.yul\":7326:7736   */\n      swap3\n      swap2\n      pop\n      pop\n      jump\t// out\n        /* \"#utility.yul\":7742:7922   */\n    tag_121:\n        /* \"#utility.yul\":7790:7867   */\n      0x4e487b7100000000000000000000000000000000000000000000000000000000\n        /* \"#utility.yul\":7787:7788   */\n      0x00\n        /* \"#utility.yul\":7780:7868   */\n      mstore\n        /* \"#utility.yul\":7887:7891   */\n      0x12\n        /* \"#utility.yul\":7884:7885   */\n      0x04\n        /* \"#utility.yul\":7877:7892   */\n      mstore\n        /* \"#utility.yul\":7911:7915   */\n      0x24\n        /* \"#utility.yul\":7908:7909   */\n      0x00\n        /* \"#utility.yul\":7901:7916   */\n      revert\n        /* \"#utility.yul\":7928:8113   */\n    tag_83:\n        /* \"#utility.yul\":7968:7969   */\n      0x00\n        /* \"#utility.yul\":7985:8005   */\n      tag_200\n        /* \"#utility.yul\":8003:8004   */\n      dup3\n        /* \"#utility.yul\":7985:8005   */\n      tag_98\n      jump\t// in\n    tag_200:\n        /* \"#utility.yul\":7980:8005   */\n      swap2\n      pop\n        /* \"#utility.yul\":8019:8039   */\n      tag_201\n        /* \"#utility.yul\":8037:8038   */\n      dup4\n        /* \"#utility.yul\":8019:8039   */\n      tag_98\n      jump\t// in\n    tag_201:\n        /* \"#utility.yul\":8014:8039   */\n      swap3\n      pop\n        /* \"#utility.yul\":8058:8059   */\n      dup3\n        /* \"#utility.yul\":8048:8083   */\n      tag_202\n      jumpi\n        /* \"#utility.yul\":8063:8081   */\n      tag_203\n      tag_121\n      jump\t// in\n    tag_203:\n        /* \"#utility.yul\":8048:8083   */\n    tag_202:\n        /* \"#utility.yul\":8105:8106   */\n      dup3\n        /* \"#utility.yul\":8102:8103   */\n      dup3\n        /* \"#utility.yul\":8098:8107   */\n      div\n        /* \"#utility.yul\":8093:8107   */\n      swap1\n      pop\n        /* \"#utility.yul\":7928:8113   */\n      swap3\n      swap2\n      pop\n      pop\n      jump\t// out\n        /* \"#utility.yul\":8119:8224   */\n    tag_122:\n        /* \"#utility.yul\":8155:8162   */\n      0x00\n        /* \"#utility.yul\":8195:8217   */\n      0xffffffffffffffffffff\n        /* \"#utility.yul\":8188:8193   */\n      dup3\n        /* \"#utility.yul\":8184:8218   */\n      and\n        /* \"#utility.yul\":8173:8218   */\n      swap1\n      pop\n        /* \"#utility.yul\":8119:8224   */\n      swap2\n      swap1\n      pop\n      jump\t// out\n        /* \"#utility.yul\":8230:8350   */\n    tag_123:\n        /* \"#utility.yul\":8302:8325   */\n      tag_206\n        /* \"#utility.yul\":8319:8324   */\n      dup2\n        /* \"#utility.yul\":8302:8325   */\n      tag_122\n      jump\t// in\n    tag_206:\n        /* \"#utility.yul\":8295:8300   */\n      dup2\n        /* \"#utility.yul\":8292:8326   */\n      eq\n        /* \"#utility.yul\":8282:8344   */\n      tag_207\n      jumpi\n        /* \"#utility.yul\":8340:8341   */\n      0x00\n        /* \"#utility.yul\":8337:8338   */\n      dup1\n        /* \"#utility.yul\":8330:8342   */\n      revert\n        /* \"#utility.yul\":8282:8344   */\n    tag_207:\n        /* \"#utility.yul\":8230:8350   */\n      pop\n      jump\t// out\n        /* \"#utility.yul\":8356:8497   */\n    tag_124:\n        /* \"#utility.yul\":8412:8417   */\n      0x00\n        /* \"#utility.yul\":8443:8449   */\n      dup2\n        /* \"#utility.yul\":8437:8450   */\n      mload\n        /* \"#utility.yul\":8428:8450   */\n      swap1\n      pop\n        /* \"#utility.yul\":8459:8491   */\n      tag_209\n        /* \"#utility.yul\":8485:8490   */\n      dup2\n        /* \"#utility.yul\":8459:8491   */\n      tag_123\n      jump\t// in\n    tag_209:\n        /* \"#utility.yul\":8356:8497   */\n      swap3\n      swap2\n      pop\n      pop\n      jump\t// out\n        /* \"#utility.yul\":8503:8579   */\n    tag_125:\n        /* \"#utility.yul\":8539:8546   */\n      0x00\n        /* \"#utility.yul\":8568:8573   */\n      dup2\n        /* \"#utility.yul\":8557:8573   */\n      swap1\n      pop\n        /* \"#utility.yul\":8503:8579   */\n      swap2\n      swap1\n      pop\n      jump\t// out\n        /* \"#utility.yul\":8585:8705   */\n    tag_126:\n        /* \"#utility.yul\":8657:8680   */\n      tag_212\n        /* \"#utility.yul\":8674:8679   */\n      dup2\n        /* \"#utility.yul\":8657:8680   */\n      tag_125\n      jump\t// in\n    tag_212:\n        /* \"#utility.yul\":8650:8655   */\n      dup2\n        /* \"#utility.yul\":8647:8681   */\n      eq\n        /* \"#utility.yul\":8637:8699   */\n      tag_213\n      jumpi\n        /* \"#utility.yul\":8695:8696   */\n      0x00\n        /* \"#utility.yul\":8692:8693   */\n      dup1\n        /* \"#utility.yul\":8685:8697   */\n      revert\n        /* \"#utility.yul\":8637:8699   */\n    tag_213:\n        /* \"#utility.yul\":8585:8705   */\n      pop\n      jump\t// out\n        /* \"#utility.yul\":8711:8852   */\n    tag_127:\n        /* \"#utility.yul\":8767:8772   */\n      0x00\n        /* \"#utility.yul\":8798:8804   */\n      dup2\n        /* \"#utility.yul\":8792:8805   */\n      mload\n        /* \"#utility.yul\":8783:8805   */\n      swap1\n      pop\n        /* \"#utility.yul\":8814:8846   */\n      tag_215\n        /* \"#utility.yul\":8840:8845   */\n      dup2\n        /* \"#utility.yul\":8814:8846   */\n      tag_126\n      jump\t// in\n    tag_215:\n        /* \"#utility.yul\":8711:8852   */\n      swap3\n      swap2\n      pop\n      pop\n      jump\t// out\n        /* \"#utility.yul\":8858:9001   */\n    tag_128:\n        /* \"#utility.yul\":8915:8920   */\n      0x00\n        /* \"#utility.yul\":8946:8952   */\n      dup2\n        /* \"#utility.yul\":8940:8953   */\n      mload\n        /* \"#utility.yul\":8931:8953   */\n      swap1\n      pop\n        /* \"#utility.yul\":8962:8995   */\n      tag_217\n        /* \"#utility.yul\":8989:8994   */\n      dup2\n        /* \"#utility.yul\":8962:8995   */\n      tag_108\n      jump\t// in\n    tag_217:\n        /* \"#utility.yul\":8858:9001   */\n      swap3\n      swap2\n      pop\n      pop\n      jump\t// out\n        /* \"#utility.yul\":9007:9978   */\n    tag_88:\n        /* \"#utility.yul\":9110:9116   */\n      0x00\n        /* \"#utility.yul\":9118:9124   */\n      dup1\n        /* \"#utility.yul\":9126:9132   */\n      0x00\n        /* \"#utility.yul\":9134:9140   */\n      dup1\n        /* \"#utility.yul\":9142:9148   */\n      0x00\n        /* \"#utility.yul\":9191:9194   */\n      0xa0\n        /* \"#utility.yul\":9179:9188   */\n      dup7\n        /* \"#utility.yul\":9170:9177   */\n      dup9\n        /* \"#utility.yul\":9166:9189   */\n      sub\n        /* \"#utility.yul\":9162:9195   */\n      slt\n        /* \"#utility.yul\":9159:9279   */\n      iszero\n      tag_219\n      jumpi\n        /* \"#utility.yul\":9198:9277   */\n      tag_220\n      tag_101\n      jump\t// in\n    tag_220:\n        /* \"#utility.yul\":9159:9279   */\n    tag_219:\n        /* \"#utility.yul\":9318:9319   */\n      0x00\n        /* \"#utility.yul\":9343:9406   */\n      tag_221\n        /* \"#utility.yul\":9398:9405   */\n      dup9\n        /* \"#utility.yul\":9389:9395   */\n      dup3\n        /* \"#utility.yul\":9378:9387   */\n      dup10\n        /* \"#utility.yul\":9374:9396   */\n      add\n        /* \"#utility.yul\":9343:9406   */\n      tag_124\n      jump\t// in\n    tag_221:\n        /* \"#utility.yul\":9333:9406   */\n      swap6\n      pop\n        /* \"#utility.yul\":9289:9416   */\n      pop\n        /* \"#utility.yul\":9455:9457   */\n      0x20\n        /* \"#utility.yul\":9481:9544   */\n      tag_222\n        /* \"#utility.yul\":9536:9543   */\n      dup9\n        /* \"#utility.yul\":9527:9533   */\n      dup3\n        /* \"#utility.yul\":9516:9525   */\n      dup10\n        /* \"#utility.yul\":9512:9534   */\n      add\n        /* \"#utility.yul\":9481:9544   */\n      tag_127\n      jump\t// in\n    tag_222:\n        /* \"#utility.yul\":9471:9544   */\n      swap5\n      pop\n        /* \"#utility.yul\":9426:9554   */\n      pop\n        /* \"#utility.yul\":9593:9595   */\n      0x40\n        /* \"#utility.yul\":9619:9683   */\n      tag_223\n        /* \"#utility.yul\":9675:9682   */\n      dup9\n        /* \"#utility.yul\":9666:9672   */\n      dup3\n        /* \"#utility.yul\":9655:9664   */\n      dup10\n        /* \"#utility.yul\":9651:9673   */\n      add\n        /* \"#utility.yul\":9619:9683   */\n      tag_128\n      jump\t// in\n    tag_223:\n        /* \"#utility.yul\":9609:9683   */\n      swap4\n      pop\n        /* \"#utility.yul\":9564:9693   */\n      pop\n        /* \"#utility.yul\":9732:9734   */\n      0x60\n        /* \"#utility.yul\":9758:9822   */\n      tag_224\n        /* \"#utility.yul\":9814:9821   */\n      dup9\n        /* \"#utility.yul\":9805:9811   */\n      dup3\n        /* \"#utility.yul\":9794:9803   */\n      dup10\n        /* \"#utility.yul\":9790:9812   */\n      add\n        /* \"#utility.yul\":9758:9822   */\n      tag_128\n      jump\t// in\n    tag_224:\n        /* \"#utility.yul\":9748:9822   */\n      swap3\n      pop\n        /* \"#utility.yul\":9703:9832   */\n      pop\n        /* \"#utility.yul\":9871:9874   */\n      0x80\n        /* \"#utility.yul\":9898:9961   */\n      tag_225\n        /* \"#utility.yul\":9953:9960   */\n      dup9\n        /* \"#utility.yul\":9944:9950   */\n      dup3\n        /* \"#utility.yul\":9933:9942   */\n      dup10\n        /* \"#utility.yul\":9929:9951   */\n      add\n        /* \"#utility.yul\":9898:9961   */\n      tag_124\n      jump\t// in\n    tag_225:\n        /* \"#utility.yul\":9888:9961   */\n      swap2\n      pop\n        /* \"#utility.yul\":9842:9971   */\n      pop\n        /* \"#utility.yul\":9007:9978   */\n      swap3\n      swap6\n      pop\n      swap3\n      swap6\n      swap1\n      swap4\n      pop\n      jump\t// out\n        /* \"#utility.yul\":9984:10540   */\n    tag_90:\n        /* \"#utility.yul\":10023:10030   */\n      0x00\n        /* \"#utility.yul\":10046:10065   */\n      tag_227\n        /* \"#utility.yul\":10063:10064   */\n      dup3\n        /* \"#utility.yul\":10046:10065   */\n      tag_125\n      jump\t// in\n    tag_227:\n        /* \"#utility.yul\":10041:10065   */\n      swap2\n      pop\n        /* \"#utility.yul\":10079:10098   */\n      tag_228\n        /* \"#utility.yul\":10096:10097   */\n      dup4\n        /* \"#utility.yul\":10079:10098   */\n      tag_125\n      jump\t// in\n    tag_228:\n        /* \"#utility.yul\":10074:10098   */\n      swap3\n      pop\n        /* \"#utility.yul\":10133:10134   */\n      dup3\n        /* \"#utility.yul\":10130:10131   */\n      dup3\n        /* \"#utility.yul\":10126:10135   */\n      mul\n        /* \"#utility.yul\":10155:10184   */\n      tag_229\n        /* \"#utility.yul\":10172:10183   */\n      dup2\n        /* \"#utility.yul\":10155:10184   */\n      tag_125\n      jump\t// in\n    tag_229:\n        /* \"#utility.yul\":10144:10184   */\n      swap2\n      pop\n        /* \"#utility.yul\":10242:10308   */\n      0x8000000000000000000000000000000000000000000000000000000000000000\n        /* \"#utility.yul\":10239:10240   */\n      dup5\n        /* \"#utility.yul\":10236:10309   */\n      eq\n        /* \"#utility.yul\":10232:10233   */\n      0x00\n        /* \"#utility.yul\":10229:10230   */\n      dup5\n        /* \"#utility.yul\":10225:10234   */\n      slt\n        /* \"#utility.yul\":10221:10310   */\n      and\n        /* \"#utility.yul\":10218:10333   */\n      iszero\n      tag_230\n      jumpi\n        /* \"#utility.yul\":10313:10331   */\n      tag_231\n      tag_120\n      jump\t// in\n    tag_231:\n        /* \"#utility.yul\":10218:10333   */\n    tag_230:\n        /* \"#utility.yul\":10483:10484   */\n      dup3\n        /* \"#utility.yul\":10474:10481   */\n      dup3\n        /* \"#utility.yul\":10469:10485   */\n      sdiv\n        /* \"#utility.yul\":10466:10467   */\n      dup5\n        /* \"#utility.yul\":10463:10486   */\n      eq\n        /* \"#utility.yul\":10443:10444   */\n      dup4\n        /* \"#utility.yul\":10436:10445   */\n      iszero\n        /* \"#utility.yul\":10416:10500   */\n      or\n        /* \"#utility.yul\":10393:10533   */\n      tag_232\n      jumpi\n        /* \"#utility.yul\":10513:10531   */\n      tag_233\n      tag_120\n      jump\t// in\n    tag_233:\n        /* \"#utility.yul\":10393:10533   */\n    tag_232:\n        /* \"#utility.yul\":10031:10540   */\n      pop\n        /* \"#utility.yul\":9984:10540   */\n      swap3\n      swap2\n      pop\n      pop\n      jump\t// out\n\n    auxdata: 0xa2646970667358221220dd9b9c24071af4cca33985f8813e5da121f1586f11450e4d5eba27b0caf0e86864736f6c634300081a0033\n}\n",
				"bytecode": {
					"linkReferences": {},
					"object": "60a0604052348015600e575f80fd5b503373ffffffffffffffffffffffffffffffffffffffff1660808173ffffffffffffffffffffffffffffffffffffffff1681525050608051610c3b6100625f395f818161026301526104ac0152610c3b5ff3fe608060405260043610610058575f3560e01c8063213dbea2146100715780633ccfd60b1461009b5780633e47d6f3146100b1578063b60d4288146100ed578063dba6335f146100f7578063dc0d3dff1461012157610067565b366100675761006561015d565b005b61006f61015d565b005b34801561007c575f80fd5b50610085610254565b604051610092919061069f565b60405180910390f35b3480156100a6575f80fd5b506100af610261565b005b3480156100bc575f80fd5b506100d760048036038101906100d29190610716565b610495565b6040516100e4919061069f565b60405180910390f35b6100f561015d565b005b348015610102575f80fd5b5061010b6104aa565b6040516101189190610750565b60405180910390f35b34801561012c575f80fd5b5061014760048036038101906101429190610793565b6104ce565b6040516101549190610750565b60405180910390f35b6802b5e3af16b188000061017034610508565b10156101b1576040517f08c379a00000000000000000000000000000000000000000000000000000000081526004016101a890610818565b60405180910390fd5b5f33908060018154018082558091505060019003905f5260205f20015f9091909190916101000a81548173ffffffffffffffffffffffffffffffffffffffff021916908373ffffffffffffffffffffffffffffffffffffffff1602179055503460015f3373ffffffffffffffffffffffffffffffffffffffff1673ffffffffffffffffffffffffffffffffffffffff1681526020019081526020015f2081905550565b6802b5e3af16b188000081565b7f000000000000000000000000000000000000000000000000000000000000000073ffffffffffffffffffffffffffffffffffffffff163373ffffffffffffffffffffffffffffffffffffffff16146102ef576040517f08c379a00000000000000000000000000000000000000000000000000000000081526004016102e6906108a6565b60405180910390fd5b5f5b5f8054905081101561038b575f808281548110610311576103106108c4565b5b905f5260205f20015f9054906101000a900473ffffffffffffffffffffffffffffffffffffffff1690505f60015f8373ffffffffffffffffffffffffffffffffffffffff1673ffffffffffffffffffffffffffffffffffffffff1681526020019081526020015f20819055505080806001019150506102f1565b505f67ffffffffffffffff8111156103a6576103a56108f1565b5b6040519080825280602002602001820160405280156103d45781602001602082028036833780820191505090505b505f90805190602001906103e99291906105e5565b505f3373ffffffffffffffffffffffffffffffffffffffff164760405161040f9061094b565b5f6040518083038185875af1925050503d805f8114610449576040519150601f19603f3d011682016040523d82523d5f602084013e61044e565b606091505b5050905080610492576040517f08c379a0000000000000000000000000000000000000000000000000000000008152600401610489906109a9565b60405180910390fd5b50565b6001602052805f5260405f205f915090505481565b7f000000000000000000000000000000000000000000000000000000000000000081565b5f81815481106104dc575f80fd5b905f5260205f20015f915054906101000a900473ffffffffffffffffffffffffffffffffffffffff1681565b5f80610512610540565b90505f670de0b6b3a7640000848361052a91906109f4565b6105349190610a62565b90508092505050919050565b5f80731b44f3514812d835eb1bdb0acb33d3fa3351ee4390505f8173ffffffffffffffffffffffffffffffffffffffff1663feaf968c6040518163ffffffff1660e01b815260040160a060405180830381865afa1580156105a3573d5f803e3d5ffd5b505050506040513d601f19601f820116820180604052508101906105c79190610b18565b5050509150506402540be400816105de9190610b8f565b9250505090565b828054828255905f5260205f2090810192821561065b579160200282015b8281111561065a578251825f6101000a81548173ffffffffffffffffffffffffffffffffffffffff021916908373ffffffffffffffffffffffffffffffffffffffff16021790555091602001919060010190610603565b5b509050610668919061066c565b5090565b5b80821115610683575f815f90555060010161066d565b5090565b5f819050919050565b61069981610687565b82525050565b5f6020820190506106b25f830184610690565b92915050565b5f80fd5b5f73ffffffffffffffffffffffffffffffffffffffff82169050919050565b5f6106e5826106bc565b9050919050565b6106f5816106db565b81146106ff575f80fd5b50565b5f81359050610710816106ec565b92915050565b5f6020828403121561072b5761072a6106b8565b5b5f61073884828501610702565b91505092915050565b61074a816106db565b82525050565b5f6020820190506107635f830184610741565b92915050565b61077281610687565b811461077c575f80fd5b50565b5f8135905061078d81610769565b92915050565b5f602082840312156107a8576107a76106b8565b5b5f6107b58482850161077f565b91505092915050565b5f82825260208201905092915050565b7f4d696e696d756e20616d6f756e74203530494e520000000000000000000000005f82015250565b5f6108026014836107be565b915061080d826107ce565b602082019050919050565b5f6020820190508181035f83015261082f816107f6565b9050919050565b7f4f6e6c79206f776e65722063616e2063616c6c20746869732066756e6374696f5f8201527f6e00000000000000000000000000000000000000000000000000000000000000602082015250565b5f6108906021836107be565b915061089b82610836565b604082019050919050565b5f6020820190508181035f8301526108bd81610884565b9050919050565b7f4e487b71000000000000000000000000000000000000000000000000000000005f52603260045260245ffd5b7f4e487b71000000000000000000000000000000000000000000000000000000005f52604160045260245ffd5b5f81905092915050565b50565b5f6109365f8361091e565b915061094182610928565b5f82019050919050565b5f6109558261092b565b9150819050919050565b7f53656e64204661696c65640000000000000000000000000000000000000000005f82015250565b5f610993600b836107be565b915061099e8261095f565b602082019050919050565b5f6020820190508181035f8301526109c081610987565b9050919050565b7f4e487b71000000000000000000000000000000000000000000000000000000005f52601160045260245ffd5b5f6109fe82610687565b9150610a0983610687565b9250828202610a1781610687565b91508282048414831517610a2e57610a2d6109c7565b5b5092915050565b7f4e487b71000000000000000000000000000000000000000000000000000000005f52601260045260245ffd5b5f610a6c82610687565b9150610a7783610687565b925082610a8757610a86610a35565b5b828204905092915050565b5f69ffffffffffffffffffff82169050919050565b610ab081610a92565b8114610aba575f80fd5b50565b5f81519050610acb81610aa7565b92915050565b5f819050919050565b610ae381610ad1565b8114610aed575f80fd5b50565b5f81519050610afe81610ada565b92915050565b5f81519050610b1281610769565b92915050565b5f805f805f60a08688031215610b3157610b306106b8565b5b5f610b3e88828901610abd565b9550506020610b4f88828901610af0565b9450506040610b6088828901610b04565b9350506060610b7188828901610b04565b9250506080610b8288828901610abd565b9150509295509295909350565b5f610b9982610ad1565b9150610ba483610ad1565b9250828202610bb281610ad1565b91507f800000000000000000000000000000000000000000000000000000000000000084145f84121615610be957610be86109c7565b5b8282058414831517610bfe57610bfd6109c7565b5b509291505056fea2646970667358221220dd9b9c24071af4cca33985f8813e5da121f1586f11450e4d5eba27b0caf0e86864736f6c634300081a0033",
					"opcodes": "PUSH1 0xA0 PUSH1 0x40 MSTORE CALLVALUE DUP1 ISZERO PUSH1 0xE JUMPI PUSH0 DUP1 REVERT JUMPDEST POP CALLER PUSH20 0xFFFFFFFFFFFFFFFFFFFFFFFFFFFFFFFFFFFFFFFF AND PUSH1 0x80 DUP2 PUSH20 0xFFFFFFFFFFFFFFFFFFFFFFFFFFFFFFFFFFFFFFFF AND DUP2 MSTORE POP POP PUSH1 0x80 MLOAD PUSH2 0xC3B PUSH2 0x62 PUSH0 CODECOPY PUSH0 DUP2 DUP2 PUSH2 0x263 ADD MSTORE PUSH2 0x4AC ADD MSTORE PUSH2 0xC3B PUSH0 RETURN INVALID PUSH1 0x80 PUSH1 0x40 MSTORE PUSH1 0x4 CALLDATASIZE LT PUSH2 0x58 JUMPI PUSH0 CALLDATALOAD PUSH1 0xE0 SHR DUP1 PUSH4 0x213DBEA2 EQ PUSH2 0x71 JUMPI DUP1 PUSH4 0x3CCFD60B EQ PUSH2 0x9B JUMPI DUP1 PUSH4 0x3E47D6F3 EQ PUSH2 0xB1 JUMPI DUP1 PUSH4 0xB60D4288 EQ PUSH2 0xED JUMPI DUP1 PUSH4 0xDBA6335F EQ PUSH2 0xF7 JUMPI DUP1 PUSH4 0xDC0D3DFF EQ PUSH2 0x121 JUMPI PUSH2 0x67 JUMP JUMPDEST CALLDATASIZE PUSH2 0x67 JUMPI PUSH2 0x65 PUSH2 0x15D JUMP JUMPDEST STOP JUMPDEST PUSH2 0x6F PUSH2 0x15D JUMP JUMPDEST STOP JUMPDEST CALLVALUE DUP1 ISZERO PUSH2 0x7C JUMPI PUSH0 DUP1 REVERT JUMPDEST POP PUSH2 0x85 PUSH2 0x254 JUMP JUMPDEST PUSH1 0x40 MLOAD PUSH2 0x92 SWAP2 SWAP1 PUSH2 0x69F JUMP JUMPDEST PUSH1 0x40 MLOAD DUP1 SWAP2 SUB SWAP1 RETURN JUMPDEST CALLVALUE DUP1 ISZERO PUSH2 0xA6 JUMPI PUSH0 DUP1 REVERT JUMPDEST POP PUSH2 0xAF PUSH2 0x261 JUMP JUMPDEST STOP JUMPDEST CALLVALUE DUP1 ISZERO PUSH2 0xBC JUMPI PUSH0 DUP1 REVERT JUMPDEST POP PUSH2 0xD7 PUSH1 0x4 DUP1 CALLDATASIZE SUB DUP2 ADD SWAP1 PUSH2 0xD2 SWAP2 SWAP1 PUSH2 0x716 JUMP JUMPDEST PUSH2 0x495 JUMP JUMPDEST PUSH1 0x40 MLOAD PUSH2 0xE4 SWAP2 SWAP1 PUSH2 0x69F JUMP JUMPDEST PUSH1 0x40 MLOAD DUP1 SWAP2 SUB SWAP1 RETURN JUMPDEST PUSH2 0xF5 PUSH2 0x15D JUMP JUMPDEST STOP JUMPDEST CALLVALUE DUP1 ISZERO PUSH2 0x102 JUMPI PUSH0 DUP1 REVERT JUMPDEST POP PUSH2 0x10B PUSH2 0x4AA JUMP JUMPDEST PUSH1 0x40 MLOAD PUSH2 0x118 SWAP2 SWAP1 PUSH2 0x750 JUMP JUMPDEST PUSH1 0x40 MLOAD DUP1 SWAP2 SUB SWAP1 RETURN JUMPDEST CALLVALUE DUP1 ISZERO PUSH2 0x12C JUMPI PUSH0 DUP1 REVERT JUMPDEST POP PUSH2 0x147 PUSH1 0x4 DUP1 CALLDATASIZE SUB DUP2 ADD SWAP1 PUSH2 0x142 SWAP2 SWAP1 PUSH2 0x793 JUMP JUMPDEST PUSH2 0x4CE JUMP JUMPDEST PUSH1 0x40 MLOAD PUSH2 0x154 SWAP2 SWAP1 PUSH2 0x750 JUMP JUMPDEST PUSH1 0x40 MLOAD DUP1 SWAP2 SUB SWAP1 RETURN JUMPDEST PUSH9 0x2B5E3AF16B1880000 PUSH2 0x170 CALLVALUE PUSH2 0x508 JUMP JUMPDEST LT ISZERO PUSH2 0x1B1 JUMPI PUSH1 0x40 MLOAD PUSH32 0x8C379A000000000000000000000000000000000000000000000000000000000 DUP2 MSTORE PUSH1 0x4 ADD PUSH2 0x1A8 SWAP1 PUSH2 0x818 JUMP JUMPDEST PUSH1 0x40 MLOAD DUP1 SWAP2 SUB SWAP1 REVERT JUMPDEST PUSH0 CALLER SWAP1 DUP1 PUSH1 0x1 DUP2 SLOAD ADD DUP1 DUP3 SSTORE DUP1 SWAP2 POP POP PUSH1 0x1 SWAP1 SUB SWAP1 PUSH0 MSTORE PUSH1 0x20 PUSH0 KECCAK256 ADD PUSH0 SWAP1 SWAP2 SWAP1 SWAP2 SWAP1 SWAP2 PUSH2 0x100 EXP DUP2 SLOAD DUP2 PUSH20 0xFFFFFFFFFFFFFFFFFFFFFFFFFFFFFFFFFFFFFFFF MUL NOT AND SWAP1 DUP4 PUSH20 0xFFFFFFFFFFFFFFFFFFFFFFFFFFFFFFFFFFFFFFFF AND MUL OR SWAP1 SSTORE POP CALLVALUE PUSH1 0x1 PUSH0 CALLER PUSH20 0xFFFFFFFFFFFFFFFFFFFFFFFFFFFFFFFFFFFFFFFF AND PUSH20 0xFFFFFFFFFFFFFFFFFFFFFFFFFFFFFFFFFFFFFFFF AND DUP2 MSTORE PUSH1 0x20 ADD SWAP1 DUP2 MSTORE PUSH1 0x20 ADD PUSH0 KECCAK256 DUP2 SWAP1 SSTORE POP JUMP JUMPDEST PUSH9 0x2B5E3AF16B1880000 DUP2 JUMP JUMPDEST PUSH32 0x0 PUSH20 0xFFFFFFFFFFFFFFFFFFFFFFFFFFFFFFFFFFFFFFFF AND CALLER PUSH20 0xFFFFFFFFFFFFFFFFFFFFFFFFFFFFFFFFFFFFFFFF AND EQ PUSH2 0x2EF JUMPI PUSH1 0x40 MLOAD PUSH32 0x8C379A000000000000000000000000000000000000000000000000000000000 DUP2 MSTORE PUSH1 0x4 ADD PUSH2 0x2E6 SWAP1 PUSH2 0x8A6 JUMP JUMPDEST PUSH1 0x40 MLOAD DUP1 SWAP2 SUB SWAP1 REVERT JUMPDEST PUSH0 JUMPDEST PUSH0 DUP1 SLOAD SWAP1 POP DUP2 LT ISZERO PUSH2 0x38B JUMPI PUSH0 DUP1 DUP3 DUP2 SLOAD DUP2 LT PUSH2 0x311 JUMPI PUSH2 0x310 PUSH2 0x8C4 JUMP JUMPDEST JUMPDEST SWAP1 PUSH0 MSTORE PUSH1 0x20 PUSH0 KECCAK256 ADD PUSH0 SWAP1 SLOAD SWAP1 PUSH2 0x100 EXP SWAP1 DIV PUSH20 0xFFFFFFFFFFFFFFFFFFFFFFFFFFFFFFFFFFFFFFFF AND SWAP1 POP PUSH0 PUSH1 0x1 PUSH0 DUP4 PUSH20 0xFFFFFFFFFFFFFFFFFFFFFFFFFFFFFFFFFFFFFFFF AND PUSH20 0xFFFFFFFFFFFFFFFFFFFFFFFFFFFFFFFFFFFFFFFF AND DUP2 MSTORE PUSH1 0x20 ADD SWAP1 DUP2 MSTORE PUSH1 0x20 ADD PUSH0 KECCAK256 DUP2 SWAP1 SSTORE POP POP DUP1 DUP1 PUSH1 0x1 ADD SWAP2 POP POP PUSH2 0x2F1 JUMP JUMPDEST POP PUSH0 PUSH8 0xFFFFFFFFFFFFFFFF DUP2 GT ISZERO PUSH2 0x3A6 JUMPI PUSH2 0x3A5 PUSH2 0x8F1 JUMP JUMPDEST JUMPDEST PUSH1 0x40 MLOAD SWAP1 DUP1 DUP3 MSTORE DUP1 PUSH1 0x20 MUL PUSH1 0x20 ADD DUP3 ADD PUSH1 0x40 MSTORE DUP1 ISZERO PUSH2 0x3D4 JUMPI DUP2 PUSH1 0x20 ADD PUSH1 0x20 DUP3 MUL DUP1 CALLDATASIZE DUP4 CALLDATACOPY DUP1 DUP3 ADD SWAP2 POP POP SWAP1 POP JUMPDEST POP PUSH0 SWAP1 DUP1 MLOAD SWAP1 PUSH1 0x20 ADD SWAP1 PUSH2 0x3E9 SWAP3 SWAP2 SWAP1 PUSH2 0x5E5 JUMP JUMPDEST POP PUSH0 CALLER PUSH20 0xFFFFFFFFFFFFFFFFFFFFFFFFFFFFFFFFFFFFFFFF AND SELFBALANCE PUSH1 0x40 MLOAD PUSH2 0x40F SWAP1 PUSH2 0x94B JUMP JUMPDEST PUSH0 PUSH1 0x40 MLOAD DUP1 DUP4 SUB DUP2 DUP6 DUP8 GAS CALL SWAP3 POP POP POP RETURNDATASIZE DUP1 PUSH0 DUP2 EQ PUSH2 0x449 JUMPI PUSH1 0x40 MLOAD SWAP2 POP PUSH1 0x1F NOT PUSH1 0x3F RETURNDATASIZE ADD AND DUP3 ADD PUSH1 0x40 MSTORE RETURNDATASIZE DUP3 MSTORE RETURNDATASIZE PUSH0 PUSH1 0x20 DUP5 ADD RETURNDATACOPY PUSH2 0x44E JUMP JUMPDEST PUSH1 0x60 SWAP2 POP JUMPDEST POP POP SWAP1 POP DUP1 PUSH2 0x492 JUMPI PUSH1 0x40 MLOAD PUSH32 0x8C379A000000000000000000000000000000000000000000000000000000000 DUP2 MSTORE PUSH1 0x4 ADD PUSH2 0x489 SWAP1 PUSH2 0x9A9 JUMP JUMPDEST PUSH1 0x40 MLOAD DUP1 SWAP2 SUB SWAP1 REVERT JUMPDEST POP JUMP JUMPDEST PUSH1 0x1 PUSH1 0x20 MSTORE DUP1 PUSH0 MSTORE PUSH1 0x40 PUSH0 KECCAK256 PUSH0 SWAP2 POP SWAP1 POP SLOAD DUP2 JUMP JUMPDEST PUSH32 0x0 DUP2 JUMP JUMPDEST PUSH0 DUP2 DUP2 SLOAD DUP2 LT PUSH2 0x4DC JUMPI PUSH0 DUP1 REVERT JUMPDEST SWAP1 PUSH0 MSTORE PUSH1 0x20 PUSH0 KECCAK256 ADD PUSH0 SWAP2 POP SLOAD SWAP1 PUSH2 0x100 EXP SWAP1 DIV PUSH20 0xFFFFFFFFFFFFFFFFFFFFFFFFFFFFFFFFFFFFFFFF AND DUP2 JUMP JUMPDEST PUSH0 DUP1 PUSH2 0x512 PUSH2 0x540 JUMP JUMPDEST SWAP1 POP PUSH0 PUSH8 0xDE0B6B3A7640000 DUP5 DUP4 PUSH2 0x52A SWAP2 SWAP1 PUSH2 0x9F4 JUMP JUMPDEST PUSH2 0x534 SWAP2 SWAP1 PUSH2 0xA62 JUMP JUMPDEST SWAP1 POP DUP1 SWAP3 POP POP POP SWAP2 SWAP1 POP JUMP JUMPDEST PUSH0 DUP1 PUSH20 0x1B44F3514812D835EB1BDB0ACB33D3FA3351EE43 SWAP1 POP PUSH0 DUP2 PUSH20 0xFFFFFFFFFFFFFFFFFFFFFFFFFFFFFFFFFFFFFFFF AND PUSH4 0xFEAF968C PUSH1 0x40 MLOAD DUP2 PUSH4 0xFFFFFFFF AND PUSH1 0xE0 SHL DUP2 MSTORE PUSH1 0x4 ADD PUSH1 0xA0 PUSH1 0x40 MLOAD DUP1 DUP4 SUB DUP2 DUP7 GAS STATICCALL ISZERO DUP1 ISZERO PUSH2 0x5A3 JUMPI RETURNDATASIZE PUSH0 DUP1 RETURNDATACOPY RETURNDATASIZE PUSH0 REVERT JUMPDEST POP POP POP POP PUSH1 0x40 MLOAD RETURNDATASIZE PUSH1 0x1F NOT PUSH1 0x1F DUP3 ADD AND DUP3 ADD DUP1 PUSH1 0x40 MSTORE POP DUP2 ADD SWAP1 PUSH2 0x5C7 SWAP2 SWAP1 PUSH2 0xB18 JUMP JUMPDEST POP POP POP SWAP2 POP POP PUSH5 0x2540BE400 DUP2 PUSH2 0x5DE SWAP2 SWAP1 PUSH2 0xB8F JUMP JUMPDEST SWAP3 POP POP POP SWAP1 JUMP JUMPDEST DUP3 DUP1 SLOAD DUP3 DUP3 SSTORE SWAP1 PUSH0 MSTORE PUSH1 0x20 PUSH0 KECCAK256 SWAP1 DUP2 ADD SWAP3 DUP3 ISZERO PUSH2 0x65B JUMPI SWAP2 PUSH1 0x20 MUL DUP3 ADD JUMPDEST DUP3 DUP2 GT ISZERO PUSH2 0x65A JUMPI DUP3 MLOAD DUP3 PUSH0 PUSH2 0x100 EXP DUP2 SLOAD DUP2 PUSH20 0xFFFFFFFFFFFFFFFFFFFFFFFFFFFFFFFFFFFFFFFF MUL NOT AND SWAP1 DUP4 PUSH20 0xFFFFFFFFFFFFFFFFFFFFFFFFFFFFFFFFFFFFFFFF AND MUL OR SWAP1 SSTORE POP SWAP2 PUSH1 0x20 ADD SWAP2 SWAP1 PUSH1 0x1 ADD SWAP1 PUSH2 0x603 JUMP JUMPDEST JUMPDEST POP SWAP1 POP PUSH2 0x668 SWAP2 SWAP1 PUSH2 0x66C JUMP JUMPDEST POP SWAP1 JUMP JUMPDEST JUMPDEST DUP1 DUP3 GT ISZERO PUSH2 0x683 JUMPI PUSH0 DUP2 PUSH0 SWAP1 SSTORE POP PUSH1 0x1 ADD PUSH2 0x66D JUMP JUMPDEST POP SWAP1 JUMP JUMPDEST PUSH0 DUP2 SWAP1 POP SWAP2 SWAP1 POP JUMP JUMPDEST PUSH2 0x699 DUP2 PUSH2 0x687 JUMP JUMPDEST DUP3 MSTORE POP POP JUMP JUMPDEST PUSH0 PUSH1 0x20 DUP3 ADD SWAP1 POP PUSH2 0x6B2 PUSH0 DUP4 ADD DUP5 PUSH2 0x690 JUMP JUMPDEST SWAP3 SWAP2 POP POP JUMP JUMPDEST PUSH0 DUP1 REVERT JUMPDEST PUSH0 PUSH20 0xFFFFFFFFFFFFFFFFFFFFFFFFFFFFFFFFFFFFFFFF DUP3 AND SWAP1 POP SWAP2 SWAP1 POP JUMP JUMPDEST PUSH0 PUSH2 0x6E5 DUP3 PUSH2 0x6BC JUMP JUMPDEST SWAP1 POP SWAP2 SWAP1 POP JUMP JUMPDEST PUSH2 0x6F5 DUP2 PUSH2 0x6DB JUMP JUMPDEST DUP2 EQ PUSH2 0x6FF JUMPI PUSH0 DUP1 REVERT JUMPDEST POP JUMP JUMPDEST PUSH0 DUP2 CALLDATALOAD SWAP1 POP PUSH2 0x710 DUP2 PUSH2 0x6EC JUMP JUMPDEST SWAP3 SWAP2 POP POP JUMP JUMPDEST PUSH0 PUSH1 0x20 DUP3 DUP5 SUB SLT ISZERO PUSH2 0x72B JUMPI PUSH2 0x72A PUSH2 0x6B8 JUMP JUMPDEST JUMPDEST PUSH0 PUSH2 0x738 DUP5 DUP3 DUP6 ADD PUSH2 0x702 JUMP JUMPDEST SWAP2 POP POP SWAP3 SWAP2 POP POP JUMP JUMPDEST PUSH2 0x74A DUP2 PUSH2 0x6DB JUMP JUMPDEST DUP3 MSTORE POP POP JUMP JUMPDEST PUSH0 PUSH1 0x20 DUP3 ADD SWAP1 POP PUSH2 0x763 PUSH0 DUP4 ADD DUP5 PUSH2 0x741 JUMP JUMPDEST SWAP3 SWAP2 POP POP JUMP JUMPDEST PUSH2 0x772 DUP2 PUSH2 0x687 JUMP JUMPDEST DUP2 EQ PUSH2 0x77C JUMPI PUSH0 DUP1 REVERT JUMPDEST POP JUMP JUMPDEST PUSH0 DUP2 CALLDATALOAD SWAP1 POP PUSH2 0x78D DUP2 PUSH2 0x769 JUMP JUMPDEST SWAP3 SWAP2 POP POP JUMP JUMPDEST PUSH0 PUSH1 0x20 DUP3 DUP5 SUB SLT ISZERO PUSH2 0x7A8 JUMPI PUSH2 0x7A7 PUSH2 0x6B8 JUMP JUMPDEST JUMPDEST PUSH0 PUSH2 0x7B5 DUP5 DUP3 DUP6 ADD PUSH2 0x77F JUMP JUMPDEST SWAP2 POP POP SWAP3 SWAP2 POP POP JUMP JUMPDEST PUSH0 DUP3 DUP3 MSTORE PUSH1 0x20 DUP3 ADD SWAP1 POP SWAP3 SWAP2 POP POP JUMP JUMPDEST PUSH32 0x4D696E696D756E20616D6F756E74203530494E52000000000000000000000000 PUSH0 DUP3 ADD MSTORE POP JUMP JUMPDEST PUSH0 PUSH2 0x802 PUSH1 0x14 DUP4 PUSH2 0x7BE JUMP JUMPDEST SWAP2 POP PUSH2 0x80D DUP3 PUSH2 0x7CE JUMP JUMPDEST PUSH1 0x20 DUP3 ADD SWAP1 POP SWAP2 SWAP1 POP JUMP JUMPDEST PUSH0 PUSH1 0x20 DUP3 ADD SWAP1 POP DUP2 DUP2 SUB PUSH0 DUP4 ADD MSTORE PUSH2 0x82F DUP2 PUSH2 0x7F6 JUMP JUMPDEST SWAP1 POP SWAP2 SWAP1 POP JUMP JUMPDEST PUSH32 0x4F6E6C79206F776E65722063616E2063616C6C20746869732066756E6374696F PUSH0 DUP3 ADD MSTORE PUSH32 0x6E00000000000000000000000000000000000000000000000000000000000000 PUSH1 0x20 DUP3 ADD MSTORE POP JUMP JUMPDEST PUSH0 PUSH2 0x890 PUSH1 0x21 DUP4 PUSH2 0x7BE JUMP JUMPDEST SWAP2 POP PUSH2 0x89B DUP3 PUSH2 0x836 JUMP JUMPDEST PUSH1 0x40 DUP3 ADD SWAP1 POP SWAP2 SWAP1 POP JUMP JUMPDEST PUSH0 PUSH1 0x20 DUP3 ADD SWAP1 POP DUP2 DUP2 SUB PUSH0 DUP4 ADD MSTORE PUSH2 0x8BD DUP2 PUSH2 0x884 JUMP JUMPDEST SWAP1 POP SWAP2 SWAP1 POP JUMP JUMPDEST PUSH32 0x4E487B7100000000000000000000000000000000000000000000000000000000 PUSH0 MSTORE PUSH1 0x32 PUSH1 0x4 MSTORE PUSH1 0x24 PUSH0 REVERT JUMPDEST PUSH32 0x4E487B7100000000000000000000000000000000000000000000000000000000 PUSH0 MSTORE PUSH1 0x41 PUSH1 0x4 MSTORE PUSH1 0x24 PUSH0 REVERT JUMPDEST PUSH0 DUP2 SWAP1 POP SWAP3 SWAP2 POP POP JUMP JUMPDEST POP JUMP JUMPDEST PUSH0 PUSH2 0x936 PUSH0 DUP4 PUSH2 0x91E JUMP JUMPDEST SWAP2 POP PUSH2 0x941 DUP3 PUSH2 0x928 JUMP JUMPDEST PUSH0 DUP3 ADD SWAP1 POP SWAP2 SWAP1 POP JUMP JUMPDEST PUSH0 PUSH2 0x955 DUP3 PUSH2 0x92B JUMP JUMPDEST SWAP2 POP DUP2 SWAP1 POP SWAP2 SWAP1 POP JUMP JUMPDEST PUSH32 0x53656E64204661696C6564000000000000000000000000000000000000000000 PUSH0 DUP3 ADD MSTORE POP JUMP JUMPDEST PUSH0 PUSH2 0x993 PUSH1 0xB DUP4 PUSH2 0x7BE JUMP JUMPDEST SWAP2 POP PUSH2 0x99E DUP3 PUSH2 0x95F JUMP JUMPDEST PUSH1 0x20 DUP3 ADD SWAP1 POP SWAP2 SWAP1 POP JUMP JUMPDEST PUSH0 PUSH1 0x20 DUP3 ADD SWAP1 POP DUP2 DUP2 SUB PUSH0 DUP4 ADD MSTORE PUSH2 0x9C0 DUP2 PUSH2 0x987 JUMP JUMPDEST SWAP1 POP SWAP2 SWAP1 POP JUMP JUMPDEST PUSH32 0x4E487B7100000000000000000000000000000000000000000000000000000000 PUSH0 MSTORE PUSH1 0x11 PUSH1 0x4 MSTORE PUSH1 0x24 PUSH0 REVERT JUMPDEST PUSH0 PUSH2 0x9FE DUP3 PUSH2 0x687 JUMP JUMPDEST SWAP2 POP PUSH2 0xA09 DUP4 PUSH2 0x687 JUMP JUMPDEST SWAP3 POP DUP3 DUP3 MUL PUSH2 0xA17 DUP2 PUSH2 0x687 JUMP JUMPDEST SWAP2 POP DUP3 DUP3 DIV DUP5 EQ DUP4 ISZERO OR PUSH2 0xA2E JUMPI PUSH2 0xA2D PUSH2 0x9C7 JUMP JUMPDEST JUMPDEST POP SWAP3 SWAP2 POP POP JUMP JUMPDEST PUSH32 0x4E487B7100000000000000000000000000000000000000000000000000000000 PUSH0 MSTORE PUSH1 0x12 PUSH1 0x4 MSTORE PUSH1 0x24 PUSH0 REVERT JUMPDEST PUSH0 PUSH2 0xA6C DUP3 PUSH2 0x687 JUMP JUMPDEST SWAP2 POP PUSH2 0xA77 DUP4 PUSH2 0x687 JUMP JUMPDEST SWAP3 POP DUP3 PUSH2 0xA87 JUMPI PUSH2 0xA86 PUSH2 0xA35 JUMP JUMPDEST JUMPDEST DUP3 DUP3 DIV SWAP1 POP SWAP3 SWAP2 POP POP JUMP JUMPDEST PUSH0 PUSH10 0xFFFFFFFFFFFFFFFFFFFF DUP3 AND SWAP1 POP SWAP2 SWAP1 POP JUMP JUMPDEST PUSH2 0xAB0 DUP2 PUSH2 0xA92 JUMP JUMPDEST DUP2 EQ PUSH2 0xABA JUMPI PUSH0 DUP1 REVERT JUMPDEST POP JUMP JUMPDEST PUSH0 DUP2 MLOAD SWAP1 POP PUSH2 0xACB DUP2 PUSH2 0xAA7 JUMP JUMPDEST SWAP3 SWAP2 POP POP JUMP JUMPDEST PUSH0 DUP2 SWAP1 POP SWAP2 SWAP1 POP JUMP JUMPDEST PUSH2 0xAE3 DUP2 PUSH2 0xAD1 JUMP JUMPDEST DUP2 EQ PUSH2 0xAED JUMPI PUSH0 DUP1 REVERT JUMPDEST POP JUMP JUMPDEST PUSH0 DUP2 MLOAD SWAP1 POP PUSH2 0xAFE DUP2 PUSH2 0xADA JUMP JUMPDEST SWAP3 SWAP2 POP POP JUMP JUMPDEST PUSH0 DUP2 MLOAD SWAP1 POP PUSH2 0xB12 DUP2 PUSH2 0x769 JUMP JUMPDEST SWAP3 SWAP2 POP POP JUMP JUMPDEST PUSH0 DUP1 PUSH0 DUP1 PUSH0 PUSH1 0xA0 DUP7 DUP9 SUB SLT ISZERO PUSH2 0xB31 JUMPI PUSH2 0xB30 PUSH2 0x6B8 JUMP JUMPDEST JUMPDEST PUSH0 PUSH2 0xB3E DUP9 DUP3 DUP10 ADD PUSH2 0xABD JUMP JUMPDEST SWAP6 POP POP PUSH1 0x20 PUSH2 0xB4F DUP9 DUP3 DUP10 ADD PUSH2 0xAF0 JUMP JUMPDEST SWAP5 POP POP PUSH1 0x40 PUSH2 0xB60 DUP9 DUP3 DUP10 ADD PUSH2 0xB04 JUMP JUMPDEST SWAP4 POP POP PUSH1 0x60 PUSH2 0xB71 DUP9 DUP3 DUP10 ADD PUSH2 0xB04 JUMP JUMPDEST SWAP3 POP POP PUSH1 0x80 PUSH2 0xB82 DUP9 DUP3 DUP10 ADD PUSH2 0xABD JUMP JUMPDEST SWAP2 POP POP SWAP3 SWAP6 POP SWAP3 SWAP6 SWAP1 SWAP4 POP JUMP JUMPDEST PUSH0 PUSH2 0xB99 DUP3 PUSH2 0xAD1 JUMP JUMPDEST SWAP2 POP PUSH2 0xBA4 DUP4 PUSH2 0xAD1 JUMP JUMPDEST SWAP3 POP DUP3 DUP3 MUL PUSH2 0xBB2 DUP2 PUSH2 0xAD1 JUMP JUMPDEST SWAP2 POP PUSH32 0x8000000000000000000000000000000000000000000000000000000000000000 DUP5 EQ PUSH0 DUP5 SLT AND ISZERO PUSH2 0xBE9 JUMPI PUSH2 0xBE8 PUSH2 0x9C7 JUMP JUMPDEST JUMPDEST DUP3 DUP3 SDIV DUP5 EQ DUP4 ISZERO OR PUSH2 0xBFE JUMPI PUSH2 0xBFD PUSH2 0x9C7 JUMP JUMPDEST JUMPDEST POP SWAP3 SWAP2 POP POP JUMP INVALID LOG2 PUSH5 0x6970667358 0x22 SLT KECCAK256 0xDD SWAP12 SWAP13 0x24 SMOD BYTE DELEGATECALL 0xCC LOG3 CODECOPY DUP6 0xF8 DUP2 RETURNDATACOPY TSTORE LOG1 0x21 CALL PC PUSH16 0x11450E4D5EBA27B0CAF0E86864736F6C PUSH4 0x4300081A STOP CALLER "
				},
				"gasEstimates": {
					"creation": {
						"codeDepositCost": "626200",
						"executionCost": "infinite",
						"totalCost": "infinite"
					},
					"external": {
						"": "infinite",
						"MIN_USD()": "303",
						"addressToAmountFunded(address)": "2824",
						"fund()": "infinite",
						"funders(uint256)": "5031",
						"i_owner()": "infinite",
						"withdraw()": "infinite"
					}
				},
				"methodIdentifiers": {
					"MIN_USD()": "213dbea2",
					"addressToAmountFunded(address)": "3e47d6f3",
					"fund()": "b60d4288",
					"funders(uint256)": "dc0d3dff",
					"i_owner()": "dba6335f",
					"withdraw()": "3ccfd60b"
				}
			},
			"storageLayout": {
				"storage": [
					{
						"astId": 61,
						"contract": "contracts/fundMe.sol:FundMe",
						"label": "funders",
						"offset": 0,
						"slot": "0",
						"type": "t_array(t_address)dyn_storage"
					},
					{
						"astId": 65,
						"contract": "contracts/fundMe.sol:FundMe",
						"label": "addressToAmountFunded",
						"offset": 0,
						"slot": "1",
						"type": "t_mapping(t_address,t_uint256)"
					}
				],
				"types": {
					"t_address": {
						"encoding": "inplace",
						"label": "address",
						"numberOfBytes": "20"
					},
					"t_array(t_address)dyn_storage": {
						"base": "t_address",
						"encoding": "dynamic_array",
						"label": "address[]",
						"numberOfBytes": "32"
					},
					"t_mapping(t_address,t_uint256)": {
						"encoding": "mapping",
						"key": "t_address",
						"label": "mapping(address => uint256)",
						"numberOfBytes": "32",
						"value": "t_uint256"
					},
					"t_uint256": {
						"encoding": "inplace",
						"label": "uint256",
						"numberOfBytes": "32"
					}
				}
			},
			"userdoc": {
				"kind": "user",
				"methods": {},
				"version": 1
			}
		}
	}
}